:100000000C94E0000C9408010C9408010C94080175
:100010000C9408010C9408010C9408010C9408013C
:100020000C9408010C9408010C9408010C9408012C
:100030000C9408010C9408010C9408010C9408011C
:100040000C946E040C9408010C944C030C9426033D
:100050000C9408010C9408010C9408010C940801FC
:100060000C94E5090C9408011112131415160001E3
:10007000020304054E4558542049443A20002C20E0
:100080006473745F69643A20004661696C6564203A
:10009000746F2073656E6420000000000800020188
:1000A000000003040700000000000000000A0B0C21
:1000B0000D0E0F2C2032203A200031203A20004C27
:1000C000697374656E696E67206F6E207468652051
:1000D000666F6C6C696E6720706970657320616E05
:1000E000642061646472657373657373203A004CB5
:1000F0007973656E646520426F6B73004855453AAD
:1001000020004641444520444F574E2C2056414C38
:100110005545203D20303A20005241494E424F572C
:100120003A20004875653A200054696D653A200010
:100130004D53475F545950453A20005061796C6FD8
:1001400061643A20004D4553534147452054494D81
:100150004520285553454420464F522043484543A7
:100160004B293A20005245434549564544204D45C8
:100170005353414745204F4E20504950453A202087
:100180000000000000250028002B000000000024D3
:100190000027002A000404040404040404020202E8
:1001A00002020203030303030301020408102040B8
:1001B00080010204081020010204081020007E12B1
:1001C00011241FBECFEFD8E0DEBFCDBF11E0A0E00D
:1001D000B1E0E6ECF9E202C005900D92A234B1075D
:1001E000D9F722E0A2E4B1E001C01D92AA3DB20716
:1001F000E1F710E0C0EED0E004C02197FE010E94BC
:10020000A013CF3DD107C9F70E94B50C0C94E1149F
:100210000C940000FC01538D448D252F30E0842F79
:1002200090E0821B930B541710F0CF96089501971E
:100230000895FC01918D828D981761F0828DDF0108
:10024000A80FB11D5D968C91928D9F5F9F73928FC9
:1002500090E008958FEF9FEF0895FC01918D828DBE
:10026000981731F0828DE80FF11D858D90E008958B
:100270008FEF9FEF0895FC01918D228D892F90E0E3
:10028000805C9F4F821B91098F739927089588ED99
:1002900091E00E943B0121E0892B09F420E0822FAC
:1002A0000895FC01848DDF01A80FB11DA35ABF4F33
:1002B0002C91848D90E001968F739927848FA68965
:1002C000B7892C93A089B1898C9180648C93938D8C
:1002D000848D981306C00288F389E02D80818F7D7C
:1002E00080830895EF92FF920F931F93CF93DF9334
:1002F000EC0181E0888F9B8D8C8D981305C0E88977
:10030000F989808185FD24C0F62E0B8D10E00F5FEA
:100310001F4F0F731127E02E8C8DE8120CC00FB603
:1003200007FCFACFE889F989808185FFF5CFCE01F6
:100330000E945101F1CF8B8DFE01E80FF11DE35AB0
:10034000FF4FF0820B8FEA89FB898081806207C0B2
:10035000EE89FF896083E889F989808180648083E0
:1003600081E090E0DF91CF911F910F91FF90EF908E
:100370000895CF93DF93EC01888D8823C9F0EA8933
:10038000FB89808185FD05C0A889B9898C9186FD8E
:100390000FC00FB607FCF5CF808185FFF2CFA8898B
:1003A000B9898C9185FFEDCFCE010E945101E7CF35
:1003B000DF91CF91089580E090E0892B29F00E9491
:1003C000470181110C94000008958230910538F0A6
:1003D000880F991F880F991F05970197F1F70895C6
:1003E0003FB7F8948091B6019091B701A091B80100
:1003F000B091B90126B5A89B05C02F3F19F0019611
:10040000A11DB11D3FBFBA2FA92F982F8827820F9A
:10041000911DA11DB11DBC01CD0142E0660F771FEA
:10042000881F991F4A95D1F70895DC01FB014C9173
:1004300011965C91119712967C91342F3F71330F76
:10044000330F832F880F35E5282F239F020E20E0DE
:10045000211D1124642F6074942F907247FD21C0D8
:1004600061110BC0911104C0822F8095422F11C0E1
:1004700045E5420F30E02BEA33C091110DC0382F13
:100480004AEA349F030E30E0311D11248BEA831BAE
:10049000420F282F30E024C080E0422F4095322FB9
:1004A0000EC0611111C091110CC0382F2AEA329F81
:1004B000030E30E0311D11244BEA431B3B5A20E070
:1004C0000FC0322F30950BC0911104C085E5820F0B
:1004D0003BEA03C08AEA820F90E0321B282F40E0FB
:1004E0005F3F11F15523E9F0222321F0259F020EF1
:1004F00020E0211D442321F0459F040E40E0411DD2
:10050000332321F0359F030E30E0311D1124509527
:10051000559F050E50E0511D1124250F450F350F35
:1005200003C03FEF4FEF2FEF7F3F09F420C050E0B3
:10053000772321F0779F512D09F05F5F5523A1F0BC
:10054000222321F0259F020E20E0211D442321F0CB
:10055000459F040E40E0411D332321F0359F030EDB
:1005600030E0311D112403C030E040E020E0208362
:1005700041833283089585ED8093BC008091BC0057
:1005800084FDFCCF10928B01089540916501262FC8
:1005900030E0240F311D21323105DCF420918B0134
:1005A0002430C9F4FC0180E090E0861758F43091C3
:1005B00065012191DC01AD5BBE4FA30FB11D2C93F2
:1005C0000196F3CF80916501680F6093650180E02B
:1005D000089581E0089582E0089508958FEF9FEFD8
:1005E00008958FEF9FEF08958091420190E09195DB
:1005F000819591090895CF93DF9300D0CDB7DEB7F1
:10060000CB01642F49835A830E94C5024981842FFC
:100610005A81952F0F900F90DF91CF910895CF932E
:10062000DF931F92CDB7DEB7698361E0CE010196FB
:100630000E94C50281E090E00F90DF91CF91089574
:10064000089580E090E008950E94D3141F920F92C5
:100650000FB60F9211242F933F934F935F936F9395
:100660007F938F939F93AF93BF93EF93FF9388ED07
:1006700091E00E945101FF91EF91BF91AF919F9145
:100680008F917F916F915F914F913F912F910F903B
:100690000FBE0F901F9018951F920F920FB60F92DA
:1006A00011242F938F939F93EF93FF93E091E80191
:1006B000F091E9018081E091EE01F091EF0182FD7E
:1006C00012C090818091F1018F5F8F732091F201B0
:1006D000821751F0E091F101F0E0E852FE4F958F62
:1006E0008093F10101C08081FF91EF919F918F91E3
:1006F0002F910F900FBE0F901F90189590E0FC0166
:10070000E756FF4F3491FC01E755FE4F2491FC0161
:10071000EB56FE4FE491EE2309F43BC0332339F14D
:10072000333091F038F43130A9F0323001F584B52E
:100730008F7D12C0373091F03830A1F03430B9F4E9
:10074000809180008F7D03C0809180008F7780939F
:1007500080000DC084B58F7784BD09C08091B00042
:100760008F7703C08091B0008F7D8093B000F0E060
:10077000EE0FFF1FEF57FE4FA591B4918FB7F8947E
:10078000EC91611103C020952E2301C02E2B2C93D8
:100790008FBF08951F93CF93DF93182FEB010E9413
:1007A000870B209711F460E004C0CF3FD10539F4E6
:1007B00061E0812FDF91CF911F910C947E03E12F97
:1007C000F0E0E756FF4FE491E330F9F048F4E13010
:1007D000B9F0E230A1F584B5806284BDC8BD34C0F3
:1007E000E730E9F0E83019F1E43049F58091800014
:1007F000806280938000D0938B00C0938A0024C0D5
:1008000084B5806884BDC7BD1FC0809180008068AA
:1008100080938000D0938900C093880015C0809198
:10082000B00080688093B000C093B3000DC0809189
:10083000B00080628093B000C093B40005C0C0389F
:10084000D1050CF0B5CFAFCFDF91CF911F910895B7
:100850008F929F92AF92BF92CF92DF92EF92FF92D0
:100860006B017C010E94F0014B015C01C114D104B9
:10087000E104F104F1F00E94F001DC01CB018819E0
:100880009909AA09BB09883E9340A105B10570F3F7
:1008900021E0C21AD108E108F10888EE880E83E051
:1008A000981EA11CB11CC114D104E104F10419F774
:1008B000DDCFFF90EF90DF90CF90BF90AF909F90F3
:1008C0008F9008952FB7F8946091B2017091B301A1
:1008D0008091B4019091B5012FBF08951F920F929E
:1008E0000FB60F9211242F933F938F939F93AF9343
:1008F000BF938091B2019091B301A091B401B091E6
:10090000B5013091B10123E0230F2D3720F401967A
:10091000A11DB11D05C026E8230F0296A11DB11D22
:100920002093B1018093B2019093B301A093B401DD
:10093000B093B5018091B6019091B701A091B80133
:10094000B091B9010196A11DB11D8093B60190939C
:10095000B701A093B801B093B901BF91AF919F9136
:100960008F913F912F910F900FBE0F901F90189570
:1009700060E070E085E00E94CA0360E070E083E020
:100980000E94CA0360E070E086E00C94CA03AF9254
:10099000BF92CF92DF92EF92FF921F93CF93DF939C
:1009A00000D01F92CDB7DEB75C011FEFC62ED12C51
:1009B000E12CF12CF5011283BE016F5F7F4FC50161
:1009C0000E941502698170E085E00E94CA036A8175
:1009D00070E083E00E94CA036B8170E086E00E94B1
:1009E000CA03C701B6010E942804115019F70F90DD
:1009F0000F900F90DF91CF911F91FF90EF90DF90BC
:100A0000CF90BF90AF900895AF92BF92CF92DF92F8
:100A1000EF92FF921F93CF93DF9300D01F92CDB739
:100A2000DEB75C0110E0C62ED12CE12CF12CF501D3
:100A30001283BE016F5F7F4FC5010E94150269815D
:100A400070E085E00E94CA036A8170E083E00E9442
:100A5000CA036B8170E086E00E94CA03C701B60139
:100A60000E9428041F5F1F3F11F70F900F900F90F7
:100A7000DF91CF911F91FF90EF90DF90CF90BF90CB
:100A8000AF900895CF93DF9300D01F92CDB7DEB71C
:100A9000BE016F5F7F4F0E941502698170E085E0A3
:100AA0000E94CA036A8170E083E00E94CA036B81DE
:100AB00070E086E00E94CA030F900F900F90DF91C4
:100AC000CF910895FC012081318182819381281783
:100AD000390719F0822F0C947E030895CF93DF938A
:100AE000EC019CB59F7D9CBD9CB5937F9CBD9CB546
:100AF0009C7F9CBD9DB591609DBD8A810E947E03B7
:100B00008C899D89DF91CF910C94E50161E00C9473
:100B10006E0560E00C946E058EBD00000DB407FEFE
:100B2000FDCF8EB50895EF92FF921F93CF93DF9381
:100B30001F92CDB7DEB77C0169830E948905698168
:100B4000862F0E948C05182FC7010E948605812FD1
:100B50000F90DF91CF911F91FF90EF90089561EE7C
:100B60000C949305EF92FF921F93CF93DF9300D0E5
:100B7000CDB7DEB77C014A8369830E94890569810C
:100B8000862F8F7180620E948C05182F4A81842FD6
:100B90000E948C05C7010E948605812F0F900F903F
:100BA000DF91CF911F91FF90EF900895CF92DF9248
:100BB000EF92FF920F931F93CF93DF9300D01F927A
:100BC000CDB7DEB77C01142F2A835B8369830E9433
:100BD00089056981862F8F7180620E948C05082F9C
:100BE000C12E5B81D52E2A81120F1C1531F0F60122
:100BF00081916F010E948C05F8CFC7010E94860584
:100C0000802F0F900F900F90DF91CF911F910F9138
:100C1000FF90EF90DF90CF900895EF92FF920F93A7
:100C20001F93CF93DF93CDB7DEB728970FB6F89415
:100C3000DEBF0FBECDBF7C0109831A832B833C83AB
:100C40004D835E836F837887FC012685AE014F5FFD
:100C50005F4F6AE00E94D605F7012685AE014F5F1F
:100C60005F4F60E1C7010E94D605F701478161E14E
:100C7000C7010E94B20528960FB6F894DEBF0FBEDA
:100C8000CDBFDF91CF911F910F91FF90EF9008950D
:100C9000EF92FF921F93CF93DF931F92CDB7DEB7F2
:100CA0007C0169830E9489056981862F8F710E946A
:100CB0008C058FEF0E948C05182FC7010E948605B6
:100CC000812F0F90DF91CF911F91FF90EF900895AA
:100CD000AF92BF92CF92DF92EF92FF920F931F934A
:100CE000CF93DF9300D000D000D0CDB7DEB78C011A
:100CF0006B017A01FC01A38CB48C67E1C5010E94F1
:100D0000480680FD0FC0C114D10471F06FEFC5011A
:100D10000E949305282F30E0359527952770F6011E
:100D2000208302C080E041C0F801C38CD48CF6015E
:100D300017811630C0F106E0F6018085811102C0EE
:100D4000101B01C010E0C6010E94890581E60E94C7
:100D50008C05CE0101965C01015038F08FEF0E94A6
:100D60008C05F50181935F01F7CF112329F08FEFF7
:100D70000E948C051150F9CFC6010E94860540E7FC
:100D800067E0C6010E94B2058981F70180838A81EC
:100D900081838B8182838C8183838D8184838E8107
:100DA000858381E002C0012FC7CF26960FB6F89445
:100DB000DEBF0FBECDBFDF91CF911F910F91FF908E
:100DC000EF90DF90CF90BF90AF9008950F931F9357
:100DD000CF93DF938C01C62FD0E0FE01E859FF4F7F
:100DE0006491FC0147810E94B20562E0C8010E9443
:100DF0004806FE01E259FF4FE49141E050E001C096
:100E0000440FEA95EAF7482B62E0C801DF91CF91E1
:100E10001F910F910C94B205EF92FF920F931F93C5
:100E2000CF938C017B0166E00E944806C82FC77DE6
:100E300082E0E816F10431F4C0628BE990E0A0E0B2
:100E4000B0E00DC0EA94EF2829F085E590E0A0E03D
:100E5000B0E005C0C86081E490E0A0E0B0E0F80137
:100E6000808B918BA28BB38B4C2F66E0C8010E94C4
:100E7000B20566E0C8010E94480691E08C1390E03C
:100E8000892FCF911F910F91FF90EF900895CF93ED
:100E9000DF93EC0160E00E94480681FD0EC0482F00
:100EA000426060E0CE010E94B20565E070E080E043
:100EB00090E0DF91CF910C942804DF91CF910895B9
:100EC000CF93DF93EC010E94470760E0CE010E94C0
:100ED0004806482F416060E0CE010E94B20540E71D
:100EE00067E0CE010E94B20561E0CE010E9462057A
:100EF0008985882349F02E85AE01475F5F4F6AE000
:100F0000CE010E94D60514C062E0CE010E944806C0
:100F1000EEE6F0E0E49121E030E001C0220FEA9536
:100F2000EAF72095422F482362E0CE010E94B205E5
:100F30006DE1CE010E94480681FF05C0CE01DF9120
:100F4000CF910C94AF05DF91CF9108952F923F92EE
:100F50004F925F926F927F928F929F92AF92BF92C9
:100F6000CF92DF92EF92FF920F931F93CF93DF9375
:100F7000CDB7DEB767970FB6F894DEBF0FBECDBF13
:100F80009E878D872F83E32F388749875A876B8702
:100F90007C87402E2983EA834B835C836D837E8329
:100FA000202F30E040E050E060E070E080E090E032
:100FB00030514F405F406F407F4F8F4F9F4F288B86
:100FC000398B4A8B5B8B6C8B7D8B8E8B9F8BAD852E
:100FD000BE855A96EC935A975B968D909C905C9741
:100FE00060E0C4010E946205F401808991890E9439
:100FF000E5016DE1C4010E94480681FF0AC0D401E9
:1010000050968D919C9151970E94E501C4010E94D8
:10101000AF0560E0C4010E944806482F4E7F60E0A3
:10102000C4010E94B20562E0C4010E944806EEE6D7
:10103000F0E0E49141E050E001C0440FEA95EAF7A6
:10104000482B62E0C4010E94B205ED85FE85038D48
:10105000148DFFE061E0C8014F1268C00E9448068D
:10106000482F4E7F61E0C8010E94B20561E070E048
:1010700080E090E00E942804088919892A893B8928
:101080004C895D896E897F89AD85BE855B968D9122
:101090009C915C970E940D06BE016F5F7F4FED85AE
:1010A000FE85838D948D0E94A60B61E070E080E048
:1010B00090E00E942804BE016F5F7F4FAD85BE8522
:1010C0005B968D919C915C970E94A60B61E070E00D
:1010D00080E090E00E942804BE016F5F7F4FED85A5
:1010E000FE85838D948D0E94A60B61E070E080E008
:1010F00090E00E942804BE016F5F7F4FAD85BE85E2
:101100005B968D919C915C970E94A60B61E070E0CC
:1011100080E090E00E942804BE016F5F7F4FED8564
:10112000FE85838D948D0E94A60B30C10E944806D7
:10113000482F416061E0C8010E94B20561E070E0A3
:1011400080E090E00E942804088919892A893B8957
:101150004C895D896E897F89AD85BE855B968D9151
:101160009C915C970E940D0601E010E0BE016F5F4C
:101170007F4FAD85BE855B968D919C915C970E945B
:10118000A60B811103C189E890E00E94660B2AE05A
:10119000A801012E000C660B770B88ED91E00E94F0
:1011A0002C0C8EE790E00E94660B842D0E949E0C12
:1011B000033011050CF4E7C0BFE04B1609F44FC033
:1011C000ED85FE85828D803A08F054C0982F9D7F72
:1011D000A9F0843099F0913051F1853041F1863099
:1011E000F1F4242D30E02F5F3F4FAD85BE85599639
:1011F0008C9190E0281739070CF06EC0242D30E058
:1012000040E050E060E070E080E090E02F5F3F4021
:101210004F405F406F407F4F8F4F9F4F18C08730C8
:10122000A1F5411004C0ED85FE85218D01C0242D5E
:1012300030E040E050E060E070E080E090E021507D
:1012400030414F405F406F407F4F8F4F9F4F522E36
:10125000632E742E852E6F87972E1C0123C0BFE04E
:101260005B2E10EF612E00EF702E80EF882EF0EFD6
:10127000FF8715C07FE0572EE0EF6E2EF0EF7F2E38
:10128000A0EF8A2E80EF8F870AC03FE0532E40EFF9
:10129000642E50EF752E60EF862EA0EFAF87912C55
:1012A000212C312C252D362D472D582D6F85792D4C
:1012B000C101A888B988CA88DB88EC88FD880E89B6
:1012C0001F890E949713A1F098F04394588A698A65
:1012D0007A8A8B8A6C8B13C0512C80EF682E90EF2A
:1012E000792E20EF822EB0EFBF87912C212C312C4C
:1012F0004A94588A698A7A8A8B8AEF85EC8B9D8A10
:101300002E8A3F8A84E790E00E94660B842D0E941B
:101310009E0CAD85BE8559962C9130E040E050E0A2
:1013200060E070E080E090E030514F405F406F40FF
:101330007F4F8F4F9F4F59016A017B018C01252DF3
:10134000362D472D582D6F85792DC1010E94971399
:10135000E8F42F3FBFEE3B07B0EF4B075B076B078F
:1013600071058105910591F0052D162D272D382D3C
:10137000462F592DB101ED85FE85838D948D0E94F8
:101380000D0600E010E00F5F1F4FF0CEED85FE85EB
:10139000838D948D0E94600767960FB6F894DEBF28
:1013A0000FBECDBFDF91CF911F910F91FF90EF90B6
:1013B000DF90CF90BF90AF909F908F907F906F9075
:1013C0005F904F903F902F9008951F920F920FB60D
:1013D0000F9211242F933F934F935F936F937F93BB
:1013E0008F939F93AF93BF93EF93FF938091B90037
:1013F000887F803609F49CC068F5883209F45BC0A8
:1014000090F4803109F454C038F4882309F4F6C00C
:10141000883009F44DC0F6C0883109F44CC08032E0
:1014200009F45DC0EFC0803409F468C048F480332B
:1014300009F455C0883309F0E5C080938A01D8C00B
:10144000803509F44FC0883509F45DC0883409F04F
:10145000D9C0D6C0883909F4C7C0A8F4883709F4C0
:1014600067C038F4883609F463C0803709F460C077
:10147000C9C0883809F4B8C0803909F45FC0803821
:1014800009F0C0C05BC0803B09F486C038F4803AE4
:1014900009F466C0883A09F47FC0B4C0803C09F4FE
:1014A000A7C0883C09F4A4C0883B09F48AC0AAC03C
:1014B0008091B00110C09091AF018091AE0198175A
:1014C00070F5E091AF0181E08E0F8093AF01F0E005
:1014D000E257FE4F80818093BB0085EC86C08093ED
:1014E0008A018EC0E091AF0181E08E0F8093AF0141
:1014F0008091BB00F0E0E257FE4F80839091AF01F6
:101500008091AE016EC0E091AF0181E08E0F8093BB
:10151000AF018091BB00F0E0E257FE4F80838091E5
:101520008D0181116DC081E080938C0184EA61C0DE
:1015300083E080938B0110928901CFCF8091890144
:10154000803208F051C0E091890181E08E0F8093D4
:1015500089018091BB00F0E0E759FE4F8083BDCF49
:1015600085EC8093BC0010928B01809189018032C0
:1015700030F4E0918901F0E0E759FE4F108260916C
:10158000890170E0E0916701F091680189E691E0DE
:1015900009951092890136C084E080938B011092E6
:1015A000660110926501E0916301F0916401099573
:1015B00080916501811105C081E0809365011092E1
:1015C0004301E091660181E08E0F80936601F0E0B7
:1015D000ED5BFE4F80818093BB009091660180910E
:1015E0006501981708F479CF85E88093BC000AC09C
:1015F00085EC8093BC0010928B0104C010928A018C
:101600000E94BB02FF91EF91BF91AF919F918F918B
:101610007F916F915F914F913F912F910F900FBEEE
:101620000F901F901895CF92DF92EF92FF920F9339
:101630001F93CF93DF936C017A018B01C0E0D0E060
:10164000CE15DF0589F0D8016D918D01D601ED91A0
:10165000FC910190F081E02DC6010995892B11F4D0
:101660007E0102C02196ECCFC701DF91CF911F917F
:101670000F91FF90EF90DF90CF900895E8EDF1E0AB
:10168000A089B18982E08C93A485B5851C92A6853A
:10169000B78580E18C93108EA489B58986E08C9300
:1016A000A289B3898C9180618C93A289B3898C9132
:1016B00088608C93A289B3898C9180688C9302880E
:1016C000F389E02D80818F7D808308950F931F9390
:1016D000CF93DF938C01C0E0D0E0F801EC0FFD1F49
:1016E0006491662371F0E091D801F091D9010190E5
:1016F000F081E02D88ED91E00995892B11F021967C
:10170000ECCFCE01DF91CF911F910F91089590E022
:10171000FC01E755FE4F2491FC01EB56FE4F8491EE
:10172000882399F090E0880F991FFC01E557FE4F40
:10173000A591B491FC01EF57FE4F859194918FB71D
:10174000F894EC91E22BEC938FBF0895CF92DF9247
:10175000EF92FF920F931F93CF93DF9300D0CDB7FB
:10176000DEB78C01FC019781C92E973010F086E01E
:10177000C82EF8018085811103C0D92EDC1801C064
:10178000D12CC80169837A830E94890580EA0E946E
:101790008C056981E62E7A81F72ECA94FFEFCF1669
:1017A00031F0F70181917F010E948C05F6CFDD2099
:1017B00029F080E00E948C05DA94F9CFC8010E94DC
:1017C000860561E0C8010E9462056FEFC8010E94B2
:1017D00093058073D1F360E0C8010E94620540E781
:1017E00067E0C8010E94B20584FF05C0C8010E94DD
:1017F000AF0580E001C081E00F900F90DF91CF91A5
:101800001F910F91FF90EF90DF90CF900895611599
:10181000710579F0FB0101900020E9F73197AF01E4
:10182000461B570BDC01ED91FC910280F381E02D0A
:10183000099480E090E00895CF93DF930E94660BB7
:10184000EC016EE371E088ED91E00E94070C8C0FD3
:101850009D1FDF91CF9108954F925F926F927F927B
:10186000EF92FF920F931F93CF93DF93CDB7DEB725
:10187000A1970FB6F894DEBF0FBECDBF7C01FA0171
:10188000CB0119A2223008F42AE08E010F5D1F4F10
:10189000422E512C612C712CBF01A30192010E9498
:1018A0003413F901CA01015011096A3014F4605D62
:1018B00001C0695CD8016C93232B242B252B61F785
:1018C000B801C7010E94070CA1960FB6F894DEBFBD
:1018D0000FBECDBFDF91CF911F910F91FF90EF9081
:1018E0007F906F905F904F900895CF92DF92EF922C
:1018F000FF92CF93DF936B017C01E091D801F091CF
:10190000D9010190F081E02D6DE288ED91E009951B
:10191000EC0144275527BA014C195D096E097F096E
:101920002AE088ED91E00E942C0C8C0F9D1FDF9126
:10193000CF91FF90EF90DF90CF900895CF93DF93FA
:10194000482F50E060E070E02AE088ED91E00E94CE
:101950002C0CEC016EE371E088ED91E00E94070C25
:101960008C0F9D1FDF91CF910895CF93DF93CDB75B
:10197000DEB7A2970FB6F894DEBF0FBECDBF789446
:1019800084B5826084BD84B5816084BD85B5826084
:1019900085BD85B5816085BD80916E008160809335
:1019A0006E0010928100809181008260809381009E
:1019B00080918100816080938100809180008160AE
:1019C000809380008091B10084608093B100809109
:1019D000B00081608093B00080917A008460809331
:1019E0007A0080917A00826080937A0080917A00F8
:1019F000816080937A0080917A00806880937A0079
:101A00001092C1001092B9021092BA021092BB0259
:101A10001092BC0210927702109278021092790212
:101A200010927A020E9462046B017C014B015C01FE
:101A300028EB820E2BE0921EA11CB11C0E946204B6
:101A40006C157D058E059F0528F086169706A8065D
:101A5000B906A0F788ED91E09093B8028093B702A1
:101A60000E943E0B0E94620460937702709378029A
:101A70008093790290937A026FE271E08091B702CD
:101A80009091B8020E94070C0E9462046B017C01D5
:101A90004B015C018AE0880E911CA11CB11C0E94C4
:101AA00062046C157D058E059F0528F08616970645
:101AB000A806B906A0F781E080938B0268EB7BE073
:101AC00080E090E00E9428040E943E0B8FEE90E0A0
:101AD0000E941C0C83E00E94870B86E00E94870B0B
:101AE00085E00E94870B1FEF1093CC011093CD016E
:101AF00019821A831B8365E0CE0101960E940405BA
:101B000080E689831A831B8365E0CE0101960E94DB
:101B1000040580EA8093CB0189831A831B8365E0E7
:101B2000CE0101960E9404058DE190E00E94A6136B
:101B30007C0184E0F701808F89E0818F88E190E06B
:101B40000E94A6138C0187E090E0F80191838083C6
:101B500088E090E093838283168280E287831086F8
:101B600085E0868785E090E0A0E0B0E0848B958BEF
:101B7000A68BB78B1186F701148F038F87E00E9425
:101B8000870BF801828193812081318128173907E1
:101B900011F00E94870BDFB6F8948091BA01811191
:101BA00024C0EFE9F1E08491E3EBF1E09491E82FB8
:101BB000F0E0EE0FFF1FE557FE4FA591B491EC91B9
:101BC000E92321F461E08AE00E947E038AE00E941A
:101BD000870B8CB580618CBD8CB580648CBD8DE02D
:101BE0000E94870B8BE00E94870B8091BA018F5F68
:101BF0008093BA01DFBE60E0C8010E94620561E027
:101C0000C8010E946E0565E070E080E090E00E94EF
:101C100028044CE060E0C8010E94B2054FE564E092
:101C2000C8010E94B20562E070E0C8010E940C0782
:101C3000882319F081E0F801868366E0C8010E94DC
:101C4000480660E070E0C8010E940C07C8010E94CD
:101C5000890580E50E948C0583E70E948C05C801F8
:101C60000E94860540E06DE1C8010E94B20540E097
:101C70006CE1C8010E94B205F801108640E767E0F8
:101C8000C8010E94B2054CE465E0C8010E94B2059B
:101C900062EEC8010E949305C8010E94AF05C80109
:101CA0000E94470760E0C8010E944806482F4E7F07
:101CB00060E0C8010E94B205F701038D148D66E053
:101CC000C8010E944806482F476066E0C8010E948C
:101CD000B20562E070E0F701838D948D0E940C07DD
:101CE000F701C38CD48C8AEA898B10EF1A8B1B8B7B
:101CF0001C8B1D8B1E8A1F8A188EF601468550E0AC
:101D0000BE016F5E7F4FC60109960E94D814EDEAAE
:101D1000F0E06491F6012685AE014F5E5F4FC6018B
:101D20000E94D60560E0C6010E94E606F701C38C5A
:101D3000D48C84E089871A871B871C871D871E86A1
:101D40001F86188AEEEAF0E06491F6012685AE015E
:101D5000475F5F4FC6010E94D60561E0C6010E9441
:101D6000E606F701C38CD48C8FE089831A831B832A
:101D70001C831D831E821F821886EFEAF0E06491A7
:101D800021E0AE014F5F5F4FC6010E94D60562E0C1
:101D9000C6010E94E606F701038D148D6DE1C801AE
:101DA0000E944806482F41606DE1C8010E94B205BB
:101DB000F701038D148D61E0C8010E944806482F89
:101DC0004B7F61E0C8010E94B205F701838D948DBD
:101DD0000E9460078FEB90E00E941C0C8AEB90E061
:101DE0000E94660B2AE044E050E060E070E088ED7D
:101DF00091E00E942C0C83EB90E00E94660B2AE09D
:101E00004FE050E060E070E088ED91E00E942C0C23
:101E10006EE371E088ED91E00E94070CF092D7012B
:101E2000E092D6011092CB018FEF8093CD01809389
:101E3000CC010E9462046093BC017093BD01809349
:101E4000BE019093BF011092C1011092C201109285
:101E5000C3011092C40181E08093CE0184E0F82E8A
:101E600094E6892E912CA12CB12C1FEFEE24E39443
:101E70004FEC51E065ED71E08091D6019091D70172
:101E80000E9468068823C1F08091CE01811110C0A4
:101E900085E691E00E94660B8091D5010E949E0C20
:101EA00085E491E00E94660B8091D1010E949E0C16
:101EB0008091D5018230D0F10E9462044090C1012E
:101EC0005090C2016090C3017090C401DC01CB014D
:101ED00084199509A609B70981369A4EAF4FBF4FAD
:101EE00020F48091CE018823F1F00091C00101110E
:101EF00091C21093CD011093CC010E9462044090D6
:101F0000BC015090BD016090BE017090BF01DC012A
:101F1000CB0184199509A609B70985369105A10554
:101F2000B10508F058C20E94DB01A2CF8091D10117
:101F3000882311F23091D2013093CB012091D3014B
:101F40002093CC019091D4019093CD013093C8019E
:101F50002093C9019093CA019091D0019093C6013A
:101F60008093C701F092C5018BE391E00E941C0CA5
:101F700080E391E00E94660B8091D0010E949E0C4C
:101F800089E291E00E94660B8091D1010E949E0C33
:101F900083E291E00E94660B8091D2010E949E0C28
:101FA0008091D001843009F418C1E0F4813009F443
:101FB000BFC008F4ADC0823009F4DDC0833009F041
:101FC000FFC16091D1018091CB01898F8091CC01BB
:101FD0008A8F8091CD018B8FCE0149960E94040596
:101FE00003E0D9C0813A09F44CC108F048C08530FB
:101FF00009F410C1803A09F0E3C168E070E080E0C4
:1020000090E00E942804C090D601D090D701AE0184
:10201000475E5F4FBE016E5D7F4FC6010E9468063E
:10202000AE01475E5F4FBE016E5D7F4FC6010E94ED
:102030006806AE01475E5F4FBE016E5D7F4FC60111
:102040000E946806AE01475E5F4FBE016E5D7F4F26
:10205000C6010E946806AE01475E5F4FBE016E5D1D
:102060007F4FC6010E946806AE01475E5F4FBE010A
:102070006E5D7F4FC6010E94680600E0FEC0823A96
:1020800009F44FC1833A09F09BC168E070E080E039
:1020900090E00E942804C090D601D090D701AE01F4
:1020A000475E5F4FBE016E5D7F4FC6010E946806AE
:1020B000AE01475E5F4FBE016E5D7F4FC6010E945D
:1020C0006806AE01475E5F4FBE016E5D7F4FC60181
:1020D0000E946806AE01475E5F4FBE016E5D7F4F96
:1020E000C6010E946806AE01475E5F4FBE016E5D8D
:1020F0007F4FC6010E946806AE01475E5F4FBE017A
:102100006E5D7F4FC6010E9468060E94B80456C1EA
:102110006091D1018091CB01898F8091CC018A8F10
:102120008091CD018B8FCE0149960E94040570C02D
:102130006091D1018091CB01898F8091CC018A8FF0
:102140008091CD018B8FCE0149960E94040503E05A
:102150002091C5013091C6014091C7015091C8013D
:102160006091C9017091CA018091D6019091D70107
:102170000E94A60723C16091D1018091CB01898F74
:102180008091CC018A8F8091CD018B8FCE014996B1
:102190000E94040505E02091C5013091C6014091DF
:1021A000C7015091C8016091C9017091CA01809125
:1021B000D6019091D7010E94A6076091D10180912C
:1021C000CB01898F8091CC018A8F8091CD018B8F3B
:1021D000CE0149960E94C704F1C08091CB01898F3E
:1021E0008091CC018A8F8091CD018B8FCE01499651
:1021F0000E9442056091D101FAE06F9FB001112465
:10220000072E000C880B990B0E9428040E94B8042A
:1022100005E09ECF8091CB01898F8091CC018A8F80
:102220008091CD018B8FCE0149960E94420560912D
:10223000D10170E080E090E00E9428040E94B80480
:1022400086CF84E6800F8093CB018091CB018F8F66
:102250008091CC0188A38091CD0189A3CE014F96B6
:102260000E9442056091D10170E080E090E00E9400
:1022700028040F5F0F3F09F4A1C00C3910F385E665
:10228000E1CF68E070E080E090E00E942804C09018
:10229000D601D090D701AE01475E5F4FBE016E5DA3
:1022A0007F4FC6010E946806AE01475E5F4FBE01C8
:1022B0006E5D7F4FC6010E946806AE01475E5F4FAC
:1022C000BE016E5D7F4FC6010E946806AE01475E8B
:1022D0005F4FBE016E5D7F4FC6010E946806AE0172
:1022E000475E5F4FBE016E5D7F4FC6010E9468066C
:1022F000AE01475E5F4FBE016E5D7F4FC6010E941B
:1023000068066091D1018091CB018F8F8091CC01C3
:1023100088A38091CD0189A3CE014F960E94040528
:102320004DC068E070E080E090E00E942804C0901A
:10233000D601D090D701AE01475E5F4FBE016E5D02
:102340007F4FC6010E946806AE01475E5F4FBE0127
:102350006E5D7F4FC6010E946806AE01475E5F4F0B
:10236000BE016E5D7F4FC6010E946806AE01475EEA
:102370005F4FBE016E5D7F4FC6010E946806AE01D1
:10238000475E5F4FBE016E5D7F4FC6010E946806CB
:10239000AE01475E5F4FBE016E5D7F4FC6010E947A
:1023A00068068091CB018F8F8091CC0188A38091AA
:1023B000CD0189A3CE014F960E9442051092CE0115
:1023C0000E9462046093C1017093C2018093C301B3
:1023D0009093C40171CD8091CB018F5F8F3F19F035
:1023E0008093CB0173C01092CB0189E191E00E94F0
:1023F000660B8091BB010E949E0C8091BB018F5F98
:102400008093BB01843008F461C0E092C001109257
:10241000BB0123C0013009F086CD0E9462044090C8
:10242000BC015090BD016090BE017090BF01DC0105
:10243000CB0184199509A609B7090697A105B1052D
:1024400008F471CD909100018091CD01992341F064
:102450008F5F8093CD018F3FC9F51092000136C088
:1024600081508093CD01811131C082E091E00E94C2
:10247000660B8091BB010E949E0C8CEF90E00E9445
:10248000660B8091CB010E949E0C009300010E947C
:102490002613A50194010E9456138091CB01262F8B
:1024A00030E0280F311D2F3F310511F00CF08F5F08
:1024B000680F6093CB018091BB018F5F8093BB015C
:1024C0008B3020F01092C0011092BB018091CB01A3
:1024D000898F8091CC018A8F8091CD018B8FCE0125
:1024E00049960E9442050E9462046093BC01709369
:1024F000BD018093BE019093BF0115CDE8EDF1E0E1
:102500001382128288EE93E0A0E0B0E0848395838A
:10251000A683B7832FE031E03183208325EC30E0C0
:102520003587248724EC30E03787268720EC30E09D
:10253000318B208B21EC30E0338B228B22EC30E08E
:10254000358B248B26EC30E0378B268B118E128E48
:10255000138E148EE5E7F2E016821782108611863C
:10256000128613861486158616861786108A118A97
:10257000128A138A148A158AEDEBF2E02FEF20837A
:1025800012821182148613864FEF5FEFBA014783E0
:10259000508761877287EAECF2E0138212828483AB
:1025A0009583A683B78381E291E091838083089528
:1025B0008F929F92AF92BF92CF92DF92EF92FF9253
:1025C000CF93DF93EC01688179818A819B816115CA
:1025D00071058105910521F464E279ED8BE597E0C1
:1025E0002DE133EF41E050E00E94561349015A01BA
:1025F0009B01AC01A7EAB1E40E9475136B017C0159
:10260000ACEEB4EFA50194010E948313DC01CB0171
:102610008C0D9D1DAE1DBF1DB7FF03C00197A10905
:10262000B04888839983AA83BB83BC01CD019F777F
:10263000DF91CF91FF90EF90DF90CF90BF90AF9060
:102640009F908F9008950E94D812089581E091E0A4
:102650000E94D81208956093010170930201809343
:102660000301909304010895A1E21A2EAA1BBB1B3B
:10267000FD010DC0AA1FBB1FEE1FFF1FA217B3074E
:10268000E407F50720F0A21BB30BE40BF50B661F64
:10269000771F881F991F1A9469F760957095809528
:1026A00090959B01AC01BD01CF010895052E97FBCC
:1026B0001EF400940E946D1357FD07D00E9434133E
:1026C00007FC03D04EF40C946D1350954095309553
:1026D00021953F4F4F4F5F4F08959095809570958E
:1026E00061957F4F8F4F9F4F08950E948813A59F3C
:1026F000900DB49F900DA49F800D911D11240895FD
:10270000B7FF0C9475130E947513821B930B0895E9
:10271000A29FB001B39FC001A39F700D811D112422
:10272000911DB29F700D811D1124911D08952A15D0
:102730003B054C055D056E057F05800791070895F3
:10274000EE0FFF1F0590F491E02D0994CF93DF93D6
:102750008230910510F482E090E0E091D802F0918F
:10276000D90220E030E0C0E0D0E0309711F14081A4
:10277000518148175907C0F04817590761F4828101
:102780009381209719F09B838A832BC09093D90261
:102790008093D80226C02115310519F0421753073E
:1027A00018F49A01BE01DF01EF010280F381E02DF0
:1027B000DCCF2115310509F1281B390B24303105F7
:1027C00090F412968D919C9113976115710521F0EB
:1027D000FB019383828304C09093D9028093D80233
:1027E000FD01329644C0FD01E20FF31F81939193E6
:1027F000225031092D933C933AC02091D60230915A
:10280000D702232B41F42091070130910801309326
:10281000D7022093D602209105013091060121159F
:10282000310541F42DB73EB74091090150910A019D
:10283000241B350BE091D602F091D702E217F30783
:10284000A0F42E1B3F0B2817390778F0AC014E5F20
:102850005F4F2417350748F04E0F5F1F5093D70284
:102860004093D6028193919302C0E0E0F0E0CF0163
:10287000DF91CF9108950F931F93CF93DF9300972C
:1028800009F48CC0FC013297138212820091D802A5
:102890001091D9020115110581F420813181820F37
:1028A000931F2091D6023091D7022817390779F566
:1028B000F093D702E093D60271C0D80140E050E017
:1028C000AE17BF0750F412962D913C911397AD01AE
:1028D0002115310509F1D901F3CF9D01DA013383C7
:1028E000228360817181860F971F8217930769F495
:1028F000EC0128813981260F371F2E5F3F4F31832E
:1029000020838A819B8193838283452B29F4F093D2
:10291000D902E093D80242C01396FC93EE9312972B
:10292000ED01499159919E01240F351FE217F307DC
:1029300071F480819181840F951F029611969C936A
:102940008E938281938113969C938E931297E0E0ED
:10295000F0E0D80112968D919C911397009719F091
:10296000F8018C01F6CF8D919C9198012E5F3F4F1D
:10297000820F931F2091D6023091D7022817390772
:1029800069F4309729F41092D9021092D80202C04B
:10299000138212821093D7020093D602DF91CF9157
:1029A0001F910F91089581E090E0F8940C94E11448
:1029B000FB01DC0102C001900D9241505040D8F75C
:0629C0000895F894FFCF1A
:1029C60001010000000000DA028000000000007231
:1029D60001130B0A01B9013B0119012D0100000089
:1029E600000F03FB022103ED02F402F102EE025690
:1029F6004D4450565F317C315F564D4450560D0A5A
:022A06000000CE
:00000001FF
