:100000000C9435000C945D000C945D000C945D0024
:100010000C945D000C945D000C945D000C945D00EC
:100020000C945D000C945D000C945D000C945D00DC
:100030000C945D000C945D000C945D000C945D00CC
:100040000C9423040C945D000C94B9060C94930654
:100050000C945D000C945D000C945D000C945D00AC
:100060000C945D000C945D00EB0611241FBECFEFD5
:10007000D8E0DEBFCDBF23E0A6E6B1E001C01D920F
:10008000A133B207E1F711E0A0E0B1E0E0ECF5E167
:1000900002C005900D92A636B107D9F710E0C5E36E
:1000A000D0E004C02197FE010E94D30AC433D107D7
:1000B000C9F70E9439070C94DE0A0C940000EF92F5
:1000C000FF920F931F93CF93DF93EC019091670101
:1000D0009F5F292F27702093670190FF02C090E84F
:1000E00001C090E021FD9064247009F0906220E14D
:1000F000290FFE013C967E018FE0E80EF11C00E026
:1001000011E06191662331F070E0C8010E94850A18
:100110006F5F01C060E0DF0114976C93322F369F50
:10012000030E30E0311D1124CF010797311103C0B8
:10013000EC01188203C03150EC013883662311F0C2
:1001400061506C93EE15FF05E1F6DF91CF911F91A1
:100150000F91FF90EF90089580E991E00895539AF0
:1001600008950F931F93CF93DF93CDB7DEB76297B8
:100170000FB6F894DEBF0FBECDBF8C01F901DC01D4
:100180001C968C917A8369835C834B835E834D8359
:1001900090819D8791819E8792819F87813029F4EC
:1001A000CE0101960E945F0006C01C861B861A863F
:1001B000198618861F8283E0888B1A8A198AD801CB
:1001C000ED91FC910484F585E02DBE016F5F7F4FBA
:1001D000C801099562960FB6F894DEBF0FBECDBF79
:1001E000DF91CF911F910F9108950F931F93CF939C
:1001F000DF93CDB7DEB762970FB6F894DEBF0FBEC0
:10020000CDBF8C01F901DC011C968C917A83698346
:100210005C834B835E834D8390819D8791819E8714
:1002200092819F87813029F4CE0101960E945F0060
:1002300006C01C861B861A86198618861F82188A95
:100240001A8A198AD801ED91FC910484F585E02D74
:10025000BE016F5F7F4FC801099562960FB6F89493
:10026000DEBF0FBECDBFDF91CF911F910F910895DB
:1002700080E090E00895FC01858596850895CF93F0
:10028000DF9300D000D000D0CDB7DEB7AB011C8229
:100290001D821E82DC01ED91FC910190F081E02D28
:1002A00019821A821B829E012F5F3F4FBE016C5F35
:1002B0007F4F099526960FB6F894DEBF0FBECDBFCF
:1002C000DF91CF9108950E94D90A3FB7F8948091A9
:1002D0006D0190916E01A0916F01B091700126B5F2
:1002E000A89B05C02F3F19F00196A11DB11D3FBF6E
:1002F000BA2FA92F982F8827820F911DA11DB11DFC
:10030000BC01CD0142E0660F771F881F991F4A95F7
:10031000D1F708958F929F92AF92BF92CF92DF92C2
:10032000EF92FF926B017C010E9465014B015C0121
:10033000C114D104E104F104F1F00E946501DC0173
:10034000CB0188199909AA09BB09883E9340A105E8
:10035000B10570F321E0C21AD108E108F10888EE76
:10036000880E83E0981EA11CB11CC114D104E104C5
:10037000F10419F7DDCFFF90EF90DF90CF90BF90A1
:10038000AF909F908F9008954F925F926F927F925F
:100390008F92AF92BF92CF92EF92FF920F931F93E3
:1003A000CF93DF933C01EB010E946501F3012785A8
:1003B0003089621B730B6A307105B0F3F894E881E1
:1003C000F9815BB158608BB1877F8BB96B8598855C
:1003D000262F291B922F2887BF844A805B807E8529
:1003E000FC84ED847F5FF394E3943E814F81A98484
:1003F000CA841281D20120E0C32F022F322F328112
:10040000112788943111390F08F43FEF91958894A2
:1004100070FD130F1795889471FD130F179588942D
:1004200072FD130F1795889473FD130F1795889419
:1004300074FD130F1795889475FD130F1795889405
:1004400076FD130F1795889477FD130F17958894F1
:10045000232F7111212F960F122F002C5BB900C092
:1004600000C017FF8BB930812227889400C0002C70
:100470008BB931113C0F00C0002C5BB900C000C02B
:1004800016FF8BB908F43FEFC195889400C0002C8B
:100490008BB9F0FC230F00C0002C5BB900C000C07A
:1004A00015FF8BB927958894F1FC230F00C0002C11
:1004B0008BB92795889400C0002C5BB900C000C0A0
:1004C00014FF8BB9F2FC230F2795889400C0002CF1
:1004D0008BB9F3FC230F00C0002C5BB900C000C037
:1004E00013FF8BB927958894F4FC230F00C0002CD0
:1004F0008BB92795889400C0002C5BB900C000C060
:1005000012FF8BB9F5FC230F2795889400C0002CAF
:100510008BB9F6FC230F00C0002C5BB900C000C0F3
:1005200011FF8BB927958894F7FC230F00C0002C8E
:100530008BB92795889400C0002C5BB900C000C01F
:1005400010FF8BB9132FF110122FCA0D00C0002C11
:100550008BB900C000C0002C5BB900C000C017FF01
:100560008BB931812227889400C0002C8BB93111BE
:10057000340F00C0002C5BB900C000C016FF8BB95F
:1005800008F43FEFEB0DF11D00C0002C8BB9E0FC2F
:10059000230F00C0002C5BB900C000C015FF8BB951
:1005A00027958894E1FC230F00C0002C8BB9279578
:1005B000889400C0002C5BB900C000C014FF8BB948
:1005C000E2FC230F2795889400C0002C8BB9E3FC34
:1005D000230F00C0002C5BB900C000C013FF8BB913
:1005E00027958894E4FC230F00C0002C8BB9279535
:1005F000889400C0002C5BB900C000C012FF8BB90A
:10060000E5FC230F2795889400C0002C8BB9E6FCED
:10061000230F00C0002C5BB900C000C011FF8BB9D4
:1006200027958894E7FC230F00C0002C8BB92795F1
:10063000889400C0002C5BB900C000C010FF8BB9CB
:10064000132FE110122F419500C0002C8BB94C0DD7
:1006500000C000C05BB900C000C017FF8BB9328179
:100660002227889400C0002C8BB93111390F00C0AB
:10067000002C5BB900C000C016FF8BB908F43FEF37
:100680009195889400C0002C8BB970FD230F00C099
:10069000002C5BB900C000C015FF8BB9279588946A
:1006A00071FD230F00C0002C8BB92795889400C0E2
:1006B000002C5BB900C000C014FF8BB972FD230F82
:1006C0002795889400C0002C8BB973FD230F00C0C0
:1006D000002C5BB900C000C013FF8BB9279588942C
:1006E00074FD230F00C0002C8BB92795889400C09F
:1006F000002C5BB900C000C012FF8BB975FD230F41
:100700002795889400C0002C8BB976FD230F00C07C
:10071000002C5BB900C000C011FF8BB927958894ED
:1007200077FD230F00C0002C8BB92795889400C05B
:10073000002C5BB900C000C010FF8BB9132F7111E2
:10074000122F960F00C0002C8BB9119709F086CE9E
:1007500020EE31E0D2010E94B80ADC01CB01F4E0C6
:10076000B695A79597958795FA95D1F720E030E053
:10077000A9016AE9469E040C411D569E400D511D7B
:100780001124450D511D840F951FA11DB11D893EDA
:1007900043E09407A105B10508F434C0885E934096
:1007A000A109B10942E0B695A795979587954A9515
:1007B000D1F747E0849F080E211D949F200D311D25
:1007C0001124290F311D6091660170E0860F971F7B
:1007D000820F931F4091690150916A0160916B01F2
:1007E00070916C01292F3327420F531F611D711D1A
:1007F0004093690150936A0160936B0170936C019F
:100800008093660178940E946501F301708B67877D
:10081000DF91CF911F910F91FF90EF90CF90BF90FC
:10082000AF908F907F906F905F904F9008952FB70B
:10083000F8946091690170916A0180916B019091C7
:100840006C012FBF08951F920F920FB60F921124C3
:100850002F933F938F939F93AF93BF9380916901A1
:1008600090916A01A0916B01B0916C013091680187
:1008700023E0230F2D3720F40196A11DB11D05C0E3
:1008800026E8230F0296A11DB11D209368018093D5
:10089000690190936A01A0936B01B0936C01809100
:1008A0006D0190916E01A0916F01B0917001019660
:1008B000A11DB11D80936D0190936E01A0936F01F6
:1008C000B0937001BF91AF919F918F913F912F9104
:1008D0000F900FBE0F901F901895CF92DF92EF925E
:1008E000FF920F931F93CF93DF936C017A018B01DB
:1008F000C0E0D0E0CE15DF0589F0D8016D918D0103
:10090000D601ED91FC910190F081E02DC601099591
:10091000892B11F47E0102C02196ECCFC701DF9133
:10092000CF911F910F91FF90EF90DF90CF9008959E
:10093000089580E090E00895FC01538D448D252FAB
:1009400030E0842F90E0821B930B541710F0CF9669
:10095000089501970895FC01918D828D981761F09B
:10096000828DDF01A80FB11D5D968C91928D9F5FE6
:100970009F73928F90E008958FEF9FEF0895FC0191
:10098000918D828D981731F0828DE80FF11D858D44
:1009900090E008958FEF9FEF0895FC01918D228DD7
:1009A000892F90E0805C9F4F821B91098F7399275C
:1009B00008958FE392E00E94CD0421E0892B09F491
:1009C00020E0822F0895FC01848DDF01A80FB11D66
:1009D000A35ABF4F2C91848D90E001968F73992775
:1009E000848FA689B7892C93A089B1898C91806462
:1009F0008C93938D848D981306C00288F389E02D23
:100A000080818F7D80830895EF92FF920F931F93D3
:100A1000CF93DF93EC0181E0888F9B8D8C8D9813B1
:100A200005C0E889F989808185FD24C0F62E0B8DEB
:100A300010E00F5F1F4F0F731127E02E8C8DE8120F
:100A40000CC00FB607FCFACFE889F989808185FFD1
:100A5000F5CFCE010E94E304F1CF8B8DFE01E80FAC
:100A6000F11DE35AFF4FF0820B8FEA89FB898081E9
:100A7000806207C0EE89FF896083E889F9898081F7
:100A80008064808381E090E0DF91CF911F910F918E
:100A9000FF90EF900895CF93DF93EC01888D88232A
:100AA000C9F0EA89FB89808185FD05C0A889B989DB
:100AB0008C9186FD0FC00FB607FCF5CF808185FFB6
:100AC000F2CFA889B9898C9185FFEDCFCE010E9424
:100AD000E304E7CFDF91CF91089580E090E0892B88
:100AE00029F00E94D90481110C94000008953F92CE
:100AF0004F925F926F927F928F929F92AF92BF922E
:100B0000CF92DF92EF92FF920F931F93CF93DF93D9
:100B100000D01F92CDB7DEB7F82E809127039091B9
:100B20002803A0912903B0912A03892B8A2B8B2BB0
:100B3000E9F00E94650100913B0210913C02209176
:100B40003D0230913E02DC01CB01801B910BA20BD8
:100B5000B30B0091270310912803209129033091B2
:100B60002A0380179107A207B307B8F20E94650114
:100B700060933B0270933C0280933D0290933E024F
:100B8000E0912F03F0913003309759F040912B03FF
:100B900050912C0360912D0370912E038F2D099598
:100BA000F82E0091390210913A024F2C512C612CF1
:100BB000712C0115110509F461C0D8011C96EC9047
:100BC0001C9780912503909126038436910510F49B
:100BD0001C961C92D801ED91FC91A280B3801982E1
:100BE0001A821B82F11014C0F80145855685628176
:100BF00073819E012F5F3F4FC801F5010995D80110
:100C00001C96EC921C9714960D911C911597D1CFC0
:100C1000F8013996CE0101966C0148019CE0890EDD
:100C2000911CDF0113973C902191332001F1222385
:100C3000F1F0822F90E0A0E0B0E09C01AD012F5FC9
:100C40003F4F4F4F5F4FC301B2010E94390A9B01D2
:100C5000AC01832D90E0A0E0B0E0BC01CD016F5F5E
:100C60007F4F8F4F9F4F0E94390AD6018C93BFEF61
:100C7000CB1ADB0AE815F905A1F6B6CF8091370249
:100C8000909138028C010F5F1F4F10933802009330
:100C9000370249979CF10E9417044B015C0188EED2
:100CA00093E0089FB001099F700D189F700D1124EB
:100CB000072E000C880B990BC0903302D0903402A1
:100CC000E0903502F0903602A50194012C193D09FF
:100CD0004E095F090E94490A309326032093250399
:100CE00010923802109237020E9417046093330268
:100CF0007093340280933502909336020F900F90D8
:100D00000F90DF91CF911F910F91FF90EF90DF90A7
:100D1000CF90BF90AF909F908F907F906F905F909B
:100D20004F903F9008951F920F920FB60F9211248B
:100D30002F933F934F935F936F937F938F939F93E3
:100D4000AF93BF93EF93FF938FE392E00E94E3048E
:100D5000FF91EF91BF91AF919F918F917F916F9193
:100D60005F914F913F912F910F900FBE0F901F9069
:100D700018951F920F920FB60F9211242F938F93F5
:100D80009F93EF93FF93E0914F02F0915002808187
:100D9000E0915502F091560282FD12C0908180913F
:100DA00058028F5F8F7320915902821751F0E091A2
:100DB0005802F0E0E15CFD4F958F8093580201C02E
:100DC0008081FF91EF919F918F912F910F900FBE96
:100DD0000F901F901895EFE3F2E01382128288EED5
:100DE00093E0A0E0B0E084839583A683B78385E495
:100DF00091E09183808385EC90E09587848784ECF3
:100E000090E09787868780EC90E0918B808B81ECD7
:100E100090E0938B828B82EC90E0958B848B86ECB8
:100E200090E0978B868B118E128E138E148EECEDC4
:100E3000F2E01682178210861186128613861486B7
:100E4000158616861786108A118A128A138A148AC2
:100E5000158AE4E2F3E08FEF808312821182148618
:100E600013868FEF9FEFDC0187839087A187B2877E
:100E70000895789484B5826084BD84B5816084BD12
:100E800085B5826085BD85B5816085BD80916E0028
:100E9000816080936E001092810080918100826059
:100EA0008093810080918100816080938100809196
:100EB00080008160809380008091B1008460809385
:100EC000B1008091B00081608093B00080917A0081
:100ED000846080937A0080917A00826080937A00A7
:100EE00080917A00816080937A0080917A00806896
:100EF00080937A001092C100109220031092210377
:100F000010922203109223031092DE021092DF024D
:100F10001092E0021092E1020E9417046B017C0122
:100F20004B015C0128EB820E2BE0921EA11CB11C30
:100F30000E9417046C157D058E059F0528F0861606
:100F40009706A806B906A0F78FE392E090931F03D7
:100F500080931E03E0914F02F091500282E0808363
:100F6000E0914B02F0914C021082E0914D02F09121
:100F70004E0280E1808310925702E0915302F0917B
:100F8000540286E08083E0915102F0915202808108
:100F900080618083E0915102F091520280818860EB
:100FA0008083E0915102F0915202808180688083B9
:100FB000E0915102F091520280818F7D80830E94E6
:100FC00017046093DE027093DF028093E002909337
:100FD000E10280911E0390911F03DC01ED91FC91D1
:100FE0000280F381E02D41E150E063E571E0099575
:100FF0000E9417046B017C014B015C01BAE08B0E6F
:10100000911CA11CB11C0E9417046C157D058E0556
:101010009F0528F086169706A806B906A0F7C1E036
:10102000C093F20268EB7BE080E090E00E948A01CE
:1010300080918401811144C0109276011092750153
:101040008FEF8093790180937A0180937B01809365
:101050007C0180937D0180937E01C0937F0110927B
:101060008101109280011092780110927701809195
:10107000390290913A02892B31F483E791E0909301
:101080003A0280933902E0917101F0917201309738
:1010900021F083E791E09583848383E791E0909347
:1010A000720180937101109283011092820184E198
:1010B00091E0909374018093730181E080938401A7
:1010C000E0917301F09174010480F581E02D83E7D4
:1010D00091E009958CE891E09093760180937501F9
:1010E00082E390E09093810180938001E09173010D
:1010F000F09174010284F385E02D83E791E0099576
:10110000009729F19C0140E050E060E472E48FE038
:1011100090E00E94990A722F632F0091270310918B
:1011200028032091290330912A03872F962FDA0173
:1011300080179107A207B30710F4D901C801809363
:10114000270390932803A0932903B0932A038FEFDA
:101150008093790190EB90937A0190EF90937B01CB
:1011600080932403F12CB5E5DB2EC1E38C2E912C6A
:10117000ECE8F1E0AEE8B1E020813BEE239F020E07
:1011800020E0211D2083ED012A91239F020E20E003
:10119000211D28832C91239F020E20E0211D2C93DA
:1011A00011243396139682E0E232F80729F7F7E02C
:1011B000AF2EB12C00E0ABEAEA2E2F2D3D2D239F60
:1011C000020E20E0211D1124C22F902F9074802F39
:1011D000807207FD1FC0911108C0811102C02095C7
:1011E00011C0CB5A80E02BEA38C0811110C0282FE3
:1011F0003AEA239F020E20E0211D11249E2D921B0E
:10120000292FC655222309F433C080E026C0122FAF
:10121000109526C1911112C081110CC0282F3AEAF5
:10122000239F020E20E0211D11241E2D121BC5E557
:10123000C20F16C1822F8095122F0AC0811104C0DF
:1012400015E5120F8E2D03C01AEA120F8D2D821B89
:10125000112309F408C1212FC0E038EC239F020EAE
:1012600020E0211D1C2FC22F282F112359F005C06B
:10127000CC2309F4FBC01C2FC0E038EC139F010EF7
:1012800010E0111D222329F038EC239F020E20E0EC
:10129000211D112437E3339F030E30E0311D11244B
:1012A000C30F130FD32FD20F0E9417042B013C0141
:1012B00020E03A2DA8E1B1E00E94760A9B01AC0142
:1012C000C301B2010E94390AAC0166277727CA011F
:1012D0009F739695879596958795969587959A018C
:1012E00022273074232B29F0AFEFB7E0A81BB90BEE
:1012F000CD01E92FEE0FEE0FF0E0EE5DFE4F208006
:101300003180928186959101989F200D311D112485
:10131000C90157FF03C09195819591099C013058EF
:10132000289DA001399DB001389D500D611D7F1D84
:10133000299D500D611D7F1D1124420F531F6F1DEC
:101340007F1DAB0166277727CA01880F991FFC0113
:10135000E40FF51FE457FE4F20812C1708F4C083DB
:10136000FC01E40FF51FE457FE4F2181211708F41B
:101370001183480F591FFA01E457FE4F82818D17E0
:1013800008F4D283005E3FEFA31AB30A87E1A816E0
:10139000B10409F012CF809124030E9477050E94C6
:1013A00017042B013C0161E070E080E090E00E94B6
:1013B0008A01809124030E9477050E941704641516
:1013C00075058605970579F380912B02811119C067
:1013D0000E941704609323027093240280932502D5
:1013E0009093260284E190E0A0E0B0E08093270291
:1013F00090932802A0932902B0932A0281E080935F
:101400002B020E94170400912302109124022091C4
:10141000250230912602DC01CB01801B910BA20B2F
:10142000B30B0091270210912802209129023091DC
:101430002A0280179107A207B30778F00E941704C9
:1014400060932302709324028093250290932602D6
:10145000809122028F5F809322020E946D0588CEC8
:101460002C2FC0E002CF282FC0E00CCF10E02C2F93
:1014700010CFDB018F939F930E946B0ABF91AF91B6
:10148000A29F800D911DA39F900DB29F900D1124DE
:101490000895A1E21A2EAA1BBB1BFD010DC0AA1FB5
:1014A000BB1FEE1FFF1FA217B307E407F50720F0CD
:1014B000A21BB30BE40BF50B661F771F881F991F48
:1014C0001A9469F760957095809590959B01AC0191
:1014D000BD01CF0108950E94760AA59F900DB49F8B
:1014E000900DA49F800D911D11240895A29FB0011D
:1014F000B39FC001A39F700D811D1124911DB29F48
:10150000700D811D1124911D089597FB072E16F46F
:10151000009407D077FD09D00E94BF0A07FC05D0D0
:101520003EF4909581959F4F0895709561957F4FFA
:101530000895052E97FB1EF400940E94B00A57FDF3
:1015400007D00E94490A07FC03D04EF40C94B00A5D
:1015500050954095309521953F4F4F4F5F4F0895DF
:1015600090958095709561957F4F8F4F9F4F08950F
:101570000E94760AB7FF0895821B930B0895AA1B59
:10158000BB1B51E107C0AA1FBB1FA617B70710F06E
:10159000A61BB70B881F991F5A95A9F780959095A0
:1015A000BC01CD010895EE0FFF1F0590F491E02DD1
:1015B000099481E090E0F8940C94DE0AF894FFCF4F
:1015C000000000006301630163013F013B0138013A
:1015D00000000000F500B100AF003F013B01AC008E
:1015E000C40100003100F9183000FB302C001C470A
:1015F0002600825A1F006D6A170041760E00897D11
:10160000040000000004056D049C044B05CD04ABF0
:1016100004BF04564D4450565F317C315F564D44F3
:0616200050560D0A000007
:107E0000112484B714BE81FFF0D085E080938100F7
:107E100082E08093C00088E18093C10086E0809377
:107E2000C20080E18093C4008EE0C9D0259A86E02C
:107E300020E33CEF91E0309385002093840096BBD3
:107E4000B09BFECF1D9AA8958150A9F7CC24DD24C4
:107E500088248394B5E0AB2EA1E19A2EF3E0BF2EE7
:107E6000A2D0813461F49FD0082FAFD0023811F036
:107E7000013811F484E001C083E08DD089C08234E0
:107E800011F484E103C0853419F485E0A6D080C0E4
:107E9000853579F488D0E82EFF2485D0082F10E0AE
:107EA000102F00270E291F29000F111F8ED06801E7
:107EB0006FC0863521F484E090D080E0DECF843638
:107EC00009F040C070D06FD0082F6DD080E0C81688
:107ED00080E7D80618F4F601B7BEE895C0E0D1E017
:107EE00062D089930C17E1F7F0E0CF16F0E7DF06D8
:107EF00018F0F601B7BEE89568D007B600FCFDCFD4
:107F0000A601A0E0B1E02C9130E011968C91119780
:107F100090E0982F8827822B932B1296FA010C0160
:107F200087BEE89511244E5F5F4FF1E0A038BF0790
:107F300051F7F601A7BEE89507B600FCFDCF97BE46
:107F4000E89526C08437B1F42ED02DD0F82E2BD052
:107F50003CD0F601EF2C8F010F5F1F4F84911BD097
:107F6000EA94F801C1F70894C11CD11CFA94CF0C13
:107F7000D11C0EC0853739F428D08EE10CD085E9AC
:107F80000AD08FE07ACF813511F488E018D01DD067
:107F900080E101D065CF982F8091C00085FFFCCF94
:107FA0009093C60008958091C00087FFFCCF809118
:107FB000C00084FD01C0A8958091C6000895E0E648
:107FC000F0E098E1908380830895EDDF803219F02E
:107FD00088E0F5DFFFCF84E1DECF1F93182FE3DFCA
:107FE0001150E9F7F2DF1F91089580E0E8DFEE27F6
:047FF000FF270994CA
:027FFE00040479
:0400000300007E007B
:00000001FF