:100000000C9455000C947D000C947D000C947D00A4
:100010000C947D000C947D000C947D000C947D006C
:100020000C947D000C947D000C947D000C947D005C
:100030000C947D000C947D000C947D000C947D004C
:100040000C9439090C947D000C9432080C940C0823
:100050000C947D000C947D000C947D000C947D002C
:100060000C947D000C947D00AB0055007C00840056
:100070004B00B5001B00E5000017E8000047B80082
:100080000077AB0000ABAB000055AB000022DD00F9
:100090000E00F2003E00C20071008F00A1005F0060
:1000A000D0002F00F9070000760A11241FBECFEF01
:1000B000D8E0DEBFCDBF27E0ACE7B1E001C01D92C4
:1000C000AE36B207E1F711E0A0E0B1E0E0E4FBE119
:1000D00002C005900D92AC37B107D9F710E0C5E525
:1000E000D0E004C02197FE010E94930DC435D107D2
:1000F000C9F70E94C40A0C949E0D0C94000080E97C
:1001000091E00895539A089580E090E00895FC01ED
:10011000858596850895CF93DF9300D000D000D0D9
:10012000CDB7DEB7AB011C821D821E82DC01ED91D2
:10013000FC910190F081E02D19821A821B829E01B0
:100140002F5F3F4FBE016C5F7F4F099526960FB61C
:10015000F894DEBF0FBECDBFDF91CF910895FC01B3
:10016000DB013C912081230F08F42FEF20831196AF
:100170003C9111972181230F08F42FEF21831296D0
:100180003C912281230F08F42FEF22830895BC01B4
:100190009C013F733695279536952795369527957B
:1001A00076FF06C08FEF97E0AC01421B530B9A011C
:1001B000E32FEE0FEE0FF0E0EE5FFE4F4081518136
:1001C00082812695FA01829FE00DF11D1124CF0155
:1001D00077FF03C091958195910908959C01869FB1
:1001E000C001379FD001E0E0369F900DA11DBE1FDA
:1001F000279F900DA11DBE1F1124BC01CD01620FD0
:10020000731F8E1F9E1F08954F925F926F927F9271
:100210008F92AF92BF92CF92EF92FF920F931F9364
:10022000CF93DF933C01EB010E94CE08F3012785B9
:100230003089621B730B6A307105B0F3F894E88162
:10024000F9815BB158608BB1877F8BB96A859F81DB
:10025000262F291B922F2F83BF844A805B807D85A8
:10026000FC84EE847F5FF394E3943E814885A98407
:10027000CB841181D20120E0C32F022F322F318194
:10028000112788943111390F08F43FEF9195889424
:1002900070FD130F1795889471FD130F17958894AF
:1002A00072FD130F1795889473FD130F179588949B
:1002B00074FD130F1795889475FD130F1795889487
:1002C00076FD130F1795889477FD130F1795889473
:1002D000232F7111212F960F122F002C5BB900C014
:1002E00000C017FF8BB930812227889400C0002CF2
:1002F0008BB931113C0F00C0002C5BB900C000C0AD
:1003000016FF8BB908F43FEFC195889400C0002C0C
:100310008BB9F0FC230F00C0002C5BB900C000C0FB
:1003200015FF8BB927958894F1FC230F00C0002C92
:100330008BB92795889400C0002C5BB900C000C021
:1003400014FF8BB9F2FC230F2795889400C0002C72
:100350008BB9F3FC230F00C0002C5BB900C000C0B8
:1003600013FF8BB927958894F4FC230F00C0002C51
:100370008BB92795889400C0002C5BB900C000C0E1
:1003800012FF8BB9F5FC230F2795889400C0002C31
:100390008BB9F6FC230F00C0002C5BB900C000C075
:1003A00011FF8BB927958894F7FC230F00C0002C10
:1003B0008BB92795889400C0002C5BB900C000C0A1
:1003C00010FF8BB9132FF110122FCA0D00C0002C93
:1003D0008BB900C000C0002C5BB900C000C017FF83
:1003E0008BB932812227889400C0002C8BB931113F
:1003F000340F00C0002C5BB900C000C016FF8BB9E1
:1004000008F43FEFEB0DF11D00C0002C8BB9E0FCB0
:10041000230F00C0002C5BB900C000C015FF8BB9D2
:1004200027958894E1FC230F00C0002C8BB92795F9
:10043000889400C0002C5BB900C000C014FF8BB9C9
:10044000E2FC230F2795889400C0002C8BB9E3FCB5
:10045000230F00C0002C5BB900C000C013FF8BB994
:1004600027958894E4FC230F00C0002C8BB92795B6
:10047000889400C0002C5BB900C000C012FF8BB98B
:10048000E5FC230F2795889400C0002C8BB9E6FC6F
:10049000230F00C0002C5BB900C000C011FF8BB956
:1004A00027958894E7FC230F00C0002C8BB9279573
:1004B000889400C0002C5BB900C000C010FF8BB94D
:1004C000132FE110122F419500C0002C8BB94C0D59
:1004D00000C000C05BB900C000C017FF8BB93181FC
:1004E0002227889400C0002C8BB93111390F00C02D
:1004F000002C5BB900C000C016FF8BB908F43FEFB9
:100500009195889400C0002C8BB970FD230F00C01A
:10051000002C5BB900C000C015FF8BB927958894EB
:1005200071FD230F00C0002C8BB92795889400C063
:10053000002C5BB900C000C014FF8BB972FD230F03
:100540002795889400C0002C8BB973FD230F00C041
:10055000002C5BB900C000C013FF8BB927958894AD
:1005600074FD230F00C0002C8BB92795889400C020
:10057000002C5BB900C000C012FF8BB975FD230FC2
:100580002795889400C0002C8BB976FD230F00C0FE
:10059000002C5BB900C000C011FF8BB9279588946F
:1005A00077FD230F00C0002C8BB92795889400C0DD
:1005B000002C5BB900C000C010FF8BB9132F711164
:1005C000122F960F00C0002C8BB9119709F086CE20
:1005D00020EE31E0D2010E948C0DDC01CB01F4E071
:1005E000B695A79597958795FA95D1F720E030E0D5
:1005F000A9016AE9469E040C411D569E400D511DFD
:100600001124450D511D840F951FA11DB11D893E5B
:1006100043E09407A105B10508F434C0885E934017
:10062000A109B10942E0B695A795979587954A9596
:10063000D1F747E0849F080E211D949F200D311DA6
:100640001124290F311D60917C0170E0860F971FE6
:10065000820F931F40916407509165076091660770
:1006600070916707292F3327420F531F611D711D9A
:10067000409364075093650760936607709367071C
:1006800080937C0178940E94CE08F301708B678779
:10069000DF91CF911F910F91FF90EF90CF90BF907E
:1006A000AF908F907F906F905F904F9008950F93D1
:1006B0001F93CF93DF93CDB7DEB762970FB6F89451
:1006C000DEBF0FBECDBF8C01F901DC011C968C9101
:1006D0007A8369835C834B835E834D8390819D879E
:1006E00091819E8792819F87813029F4CE01019666
:1006F0000E94290A06C01C861B861A86198618863F
:100700001F8283E0888B1A8A198AD801ED91FC91A7
:100710000484F585E02DBE016F5F7F4FC801099508
:1007200062960FB6F894DEBF0FBECDBFDF91CF91BA
:100730001F910F9108950F931F93CF93DF93CDB720
:10074000DEB762970FB6F894DEBF0FBECDBF8C0147
:10075000F901DC011C968C917A8369835C834B835D
:100760005E834D8390819D8791819E8792819F8733
:10077000813029F4CE0101960E94290A06C01C8608
:100780001B861A86198618861F82188A1A8A198A61
:10079000D801ED91FC910484F585E02DBE016F5FD9
:1007A0007F4FC801099562960FB6F894DEBF0FBE61
:1007B000CDBFDF91CF911F910F9108950F931F939C
:1007C000CF93DF9300D01F92CDB7DEB780917D012C
:1007D00089838FEF8B8380EF8A830EE711E0B80166
:1007E000CE0101960E9483098981895F89830D5F0B
:1007F0001F4F86E00E32180791F70F900F900F9061
:10080000DF91CF911F910F910895CF93DF9300D087
:100810001F92CDB7DEB70E94DE0320910001309118
:10082000010145E058E0249FC001259F900D349FB1
:10083000900D1124875E994C9093010180930001E3
:10084000292F280F203518F52FEF29832A832B8392
:10085000849F9001859F300D949F300D1124275E59
:10086000394C3093010120930001A0E9B1E00E94CE
:10087000360DAA27BB279C01220F331F820F931F1F
:10088000BE016F5F7F4F82589E4F0E94AF000F9056
:100890000F900F90DF91CF9108950F931F93CF93F7
:1008A000DF93CDB7DEB7E0970FB6F894DEBF0FBE8B
:1008B000CDBF88E690E0DE0113969E012D5C3F4F90
:1008C000FC014591559165917491FD0132976083CA
:1008D000319650834C9304961396A217B30781F771
:1008E0000E942D099B01AC0160E070ED83E490E073
:1008F0000E94F90C292F96FD2095E22FEF732F709F
:1009000096FD2F5FE695E695E695E670F0E0EF5DE3
:10091000FE4F8181829F202D812D112422952F70E1
:100920008295807F282B8081280F97FD2195205864
:100930003FEB239F020E20E0211D112480E4820F53
:1009400060E070E0A0E0B0E020917D01982F921B64
:100950009B0F2A0F122F12951F702F70312F330FFC
:10096000310FE1E0F0E0EC0FFD1FE30FF11D5081CE
:1009700041813281222309F429C01F3011F03396BE
:1009800002C0FE0131962295207F022F0095108132
:10099000509F050E50E0511D129F010E10E0111DD9
:1009A000510F1181409F040E40E0411D129F010E26
:1009B00010E0111D410F1281309F030E30E0311DF8
:1009C000129F010E10E0111D310F11249F3FD9F02D
:1009D0009923B1F021E0290F552321F0529F050EF4
:1009E00050E0511D442321F0429F040E40E0411D80
:1009F000332321F0329F030E30E0311D112403C058
:100A000030E040E050E0FB01E258FE4F508341836C
:100A10003283B65FAE5F6D5F7F4F603B94E07907D6
:100A200009F092CFE0960FB6F894DEBF0FBECDBFAF
:100A3000DF91CF911F910F9108950F931F93CF9343
:100A4000DF9300D000D000D0CDB7DEB785EF0E9495
:100A5000E807809100019091010145E058E0849FF2
:100A60008001859F100D949F100D1124075E194C75
:100A700020917D01049FC001059F900D149F900D52
:100A80001124875E994C9093010180930001890F96
:100A900030E4839FC0011124822F890F898388EC61
:100AA0008A838FEF8B83BE016C5F7F4FCE010196EF
:100AB0000E9483099801A0E9B1E00E94360DAA279F
:100AC000BB279C01220F331F820F931FBE016C5F57
:100AD0007F4F82589E4F0E94AF0026960FB6F89423
:100AE000DEBF0FBECDBFDF91CF911F910F91089553
:100AF000DF92EF92FF920F931F93CF93DF9300D07B
:100B000000D000D0CDB7DEB78BEE0E94E80707E03B
:100B100010E0F12C48ECE42EDD24DA94F982EA822C
:100B2000DB82BE016C5F7F4FCE0101960E9483097C
:100B30000E942D099B01AC01A8E1B1E00E942B0DA0
:100B40009B01AC01B02FA0E00E942B0D0E94C700BA
:100B50006FE871E090580E94EE002C81FC01EE0FCE
:100B6000FF1FDF01A80FB91FA258BE4F3C913217DB
:100B700008F42C932D81DF01A80FB91FA258BE4F96
:100B800011963C911197321710F411962C932E81E7
:100B90008E0F9F1FFC01E258FE4F8281821708F4DE
:100BA000228380E2F80E0F5F1F4F0F30110509F00E
:100BB000B5CF26960FB6F894DEBF0FBECDBFDF913E
:100BC000CF911F910F91FF90EF90DF9008950F93B9
:100BD0001F93CF93DF9300D000D000D0CDB7DEB706
:100BE0008BEE0E94E8070E942D099B01AC0160E09A
:100BF00078E38EE090E00E94F90C0E94C7006FE855
:100C000071E090580E94EE008C0180917D018983F3
:100C10008FEF8A8380EC8B83BE016C5F7F4FCE01A8
:100C200001960E948309C801880F991F800F911FA8
:100C3000BE016C5F7F4F82589E4F0E94AF00269688
:100C40000FB6F894DEBF0FBECDBFDF91CF911F91DD
:100C50000F910895CF92DF92EF92FF920F931F931F
:100C6000CF93DF936C017A018B01C0E0D0E0CE1509
:100C7000DF0589F0D8016D918D01D601ED91FC91D0
:100C80000190F081E02DC6010995892B11F47E01B8
:100C900002C02196ECCFC701DF91CF911F910F9138
:100CA000FF90EF90DF90CF900895089580E090E05E
:100CB000089582E796E00E94950821E0892B09F4C7
:100CC00020E0822F08953F924F925F926F927F9221
:100CD0008F929F92AF92BF92CF92DF92EF92FF924C
:100CE0000F931F93CF93DF9300D01F92CDB7DEB742
:100CF000F82E80915A0790915B07A0915C07B09104
:100D00005D07892B8A2B8B2BE9F00E94CE0800917E
:100D10006E0610916F062091700630917106DC010D
:100D2000CB01801B910BA20BB30B00915A071091C2
:100D30005B0720915C0730915D0780179107A20740
:100D4000B307B8F20E94CE0860936E0670936F06E8
:100D50008093700690937106E0916207F0916307AB
:100D6000309759F040915E0750915F07609160079E
:100D7000709161078F2D0995F82E00916C061091E6
:100D80006D064F2C512C612C712C0115110509F4A5
:100D900061C0D8011C96EC901C97809158079091E7
:100DA00059078436910510F41C961C92D801ED91D8
:100DB000FC91A280B38019821A821B82F11014C0A8
:100DC000F80145855685628173819E012F5F3F4FF3
:100DD000C801F5010995D8011C96EC921C97149650
:100DE0000D911C911597D1CFF8013996CE0101963E
:100DF0006C0148019CE0890E911CDF0113973C9027
:100E00002191332001F12223F1F0822F90E0A0E024
:100E1000B0E09C01AD012F5F3F4F4F4F5F4FC301CB
:100E2000B2010E94F90C9B01AC01832D90E0A0E07F
:100E3000B0E0BC01CD016F5F7F4F8F4F9F4F0E948D
:100E4000F90CD6018C93BFEFCB1ADB0AE815F90534
:100E5000A1F6B6CF80916A0690916B068C010F5F68
:100E60001F4F10936B0600936A0649979CF10E94EE
:100E70002D094B015C0188EE93E0089FB001099FAA
:100E8000700D189F700D1124072E000C880B990B04
:100E9000C0906606D0906706E0906806F0906906FC
:100EA000A50194012C193D094E095F090E94090D05
:100EB000309359072093580710926B0610926A06D8
:100EC0000E942D09609366067093670680936806FA
:100ED000909369060F900F900F90DF91CF911F9123
:100EE0000F91FF90EF90DF90CF90BF90AF909F90C9
:100EF0008F907F906F905F904F903F900895EF920A
:100F0000FF920F931F93CF93DF93EC0181E0888FC3
:100F10009B8D8C8D981305C0E889F989808185FDAA
:100F200024C0F62E0B8D10E00F5F1F4F0F7311279B
:100F3000E02E8C8DE8120CC00FB607FCFACFE889C2
:100F4000F989808185FFF5CFCE010E94AD08F1CFF0
:100F50008B8DFE01E80FF11DE35AFF4FF0820B8FDE
:100F6000EA89FB898081806207C0EE89FF896083FE
:100F7000E889F98980818064808381E090E0DF9155
:100F8000CF911F910F91FF90EF900895CF93DF9332
:100F9000EC01888D8823C9F0EA89FB89808185FD71
:100FA00005C0A889B9898C9186FD0FC00FB607FCD2
:100FB000F5CF808185FFF2CFA889B9898C9185FF13
:100FC000EDCFCE010E94AD08E7CFDF91CF9108951C
:100FD000CF93DF93382FEEE7F1E0A0E8B1E0208176
:100FE000239F020E20E0211D2083ED012A91239FE3
:100FF000020E20E0211D28832C91239F020E20E069
:10100000211D2C9311243396139686E0EE32F807B7
:1010100031F7DF91CF9108951F920F920FB60F9283
:1010200011242F933F934F935F936F937F938F93ED
:101030009F93AF93BF93EF93FF9382E796E00E9455
:10104000AD08FF91EF91BF91AF919F918F917F91EB
:101050006F915F914F913F912F910F900FBE0F9025
:101060001F9018951F920F920FB60F9211242F9375
:101070008F939F93EF93FF93E0918206F091830605
:101080008081E0918806F091890682FD12C09081EE
:1010900080918B068F5F8F7320918C06821751F0A1
:1010A000E0918B06F0E0EE58F94F958F80938B0618
:1010B00001C08081FF91EF919F918F912F910F90AF
:1010C0000FBE0F901F901895FC01538D448D252F56
:1010D00030E0842F90E0821B930B541710F0CF96D2
:1010E000089501970895FC01918D828D981761F004
:1010F000828DDF01A80FB11D5D968C91928D9F5F4F
:101100009F73928F90E008958FEF9FEF0895FC01F9
:10111000918D828D981731F0828DE80FF11D858DAC
:1011200090E008958FEF9FEF0895FC01918D228D3F
:10113000892F90E0805C9F4F821B91098F739927C4
:10114000089580E090E0892B29F00E9459068111D2
:101150000C94000008950E94990DFC01848DDF011C
:10116000A80FB11DA35ABF4F2C91848D90E001961A
:101170008F739927848FA689B7892C93A089B18909
:101180008C9180648C93938D848D981306C0028813
:10119000F389E02D80818F7D808308953FB7F89497
:1011A00080916A0790916B07A0916C07B0916D07D1
:1011B00026B5A89B05C02F3F19F00196A11DB11DB2
:1011C0003FBFBA2FA92F982F8827820F911DA11DED
:1011D000B11DBC01CD0142E0660F771F881F991F2A
:1011E0004A95D1F708958F929F92AF92BF92CF9276
:1011F000DF92EF92FF926B017C010E94CE084B01BF
:101200005C01C114D104E104F104F1F00E94CE08A4
:10121000DC01CB0188199909AA09BB09883E9340D2
:10122000A105B10570F321E0C21AD108E108F10867
:1012300088EE880E83E0981EA11CB11CC114D10455
:10124000E104F10419F7DDCFFF90EF90DF90CF902C
:10125000BF90AF909F908F9008952FB7F8946091B2
:1012600064077091650780916607909167072FBFAB
:1012700008951F920F920FB60F9211242F933F9350
:101280008F939F93AF93BF9380916407909165076D
:10129000A0916607B09167073091690723E0230F9B
:1012A0002D3720F40196A11DB11D05C026E8230F9E
:1012B0000296A11DB11D2093690780936407909346
:1012C0006507A0936607B093670780916A079091BE
:1012D0006B07A0916C07B0916D070196A11DB11D20
:1012E00080936A0790936B07A0936C07B0936D0788
:1012F000BF91AF919F918F913F912F910F900FBE12
:101300000F901F901895DC01FB014C9111965C9198
:10131000119712967C91342F3F71330F330F832F27
:10132000880F35E5282F239F020E20E0211D112470
:10133000642F6074942F907247FD21C061110BC01F
:10134000911104C0822F8095422F11C045E5420FB4
:1013500030E02BEA33C091110DC0382F4AEA349F98
:10136000030E30E0311D11248BEA831B420F282F1E
:1013700030E024C080E0422F4095322F0EC0611132
:1013800011C091110CC0382F2AEA329F030E30E0B1
:10139000311D11244BEA431B3B5A20E00FC0322F72
:1013A00030950BC0911104C085E5820F3BEA03C064
:1013B0008AEA820F90E0321B282F40E05F3F11F154
:1013C0005523E9F0222321F0259F020E20E0211D64
:1013D000442321F0459F040E40E0411D332321F0BA
:1013E000359F030E30E0311D11245095559F050E99
:1013F00050E0511D1124250F450F350F03C03FEF5D
:101400004FEF2FEF7F3F09F420C050E0772321F00A
:10141000779F512D09F05F5F5523A1F0222321F022
:10142000259F020E20E0211D442321F0459F040E3C
:1014300040E0411D332321F0359F030E30E0311D84
:10144000112403C030E040E020E020834183328358
:101450000895EF92FF920F931F93CF93DF93EC01C8
:10146000909168079F5F292F27702093680790FF4E
:1014700002C090E801C090E021FD9064247009F062
:10148000906220E1290FFE013C967E018FE0E80E7C
:10149000F11C00E011E06191662331F070E0C801B9
:1014A0000E94590D6F5F01C060E0DF0114976C93DB
:1014B000322F369F030E30E0311D1124CF010797E4
:1014C000311103C0EC01188203C03150EC013883A4
:1014D000662311F061506C93EE15FF05E1F6DF9184
:1014E000CF911F910F91FF90EF900895E2E7F6E002
:1014F0001382128288EE93E0A0E0B0E084839583AB
:10150000A683B7838BE591E09183808385EC90E09F
:101510009587848784EC90E09787868780EC90E0BD
:10152000918B808B81EC90E0938B828B82EC90E0AE
:10153000958B848B86EC90E0978B868B118E128E28
:10154000138E148EEFE0F7E0168217821086118654
:10155000128613861486158616861786108A118AB7
:10156000128A138A148A158AE7E5F7E08FEF8083E1
:1015700012821182148613868FEF9FEFDC0187831E
:101580009087A187B2870895789484B5826084BDDE
:1015900084B5816084BD85B5826085BD85B5816077
:1015A00085BD80916E00816080936E0010928100F5
:1015B00080918100826080938100809181008160B0
:1015C0008093810080918000816080938000809171
:1015D000B10084608093B1008091B00081608093FD
:1015E000B00080917A00846080937A0080917A00C4
:1015F000826080937A0080917A00816080937A0083
:1016000080917A00806880937A001092C1001092D5
:1016100053071092540710925507109256071092D4
:1016200011071092120710921307109214070E94CC
:101630002D096B017C014B015C0188EB880E8BE06E
:10164000981EA11CB11C0E942D096C157D058E05EC
:101650009F0528F086169706A806B906A0F782E728
:1016600096E09093520780935107E0918206F091A3
:10167000830682E08083E0917E06F0917F061082EF
:10168000E0918006F091810680E1808310928A06C5
:10169000E0918606F091870686E08083E0918406DB
:1016A000F0918506808180618083E0918406F091CD
:1016B0008506808188608083E0918406F0918506AC
:1016C000808180688083E0918406F0918506808126
:1016D0008F7D80830E942D096093110770931207FC
:1016E00080931307909314078091510790915207AC
:1016F000DC01ED91FC910280F381E02D41E150E0AD
:1017000069E671E009950E942D096B017C014B018E
:101710005C01BAE08B0E911CA11CB11C0E942D092A
:101720006C157D058E059F0528F086169706A80680
:10173000B906A0F7C1E0C093250768EB7BE080E025
:1017400090E00E94F30880914106811144C01092FC
:101750003306109232068FEF809336068093370659
:10176000809338068093390680933A0680933B062F
:10177000C0933C0610923E0610923D06109235062C
:101780001092340680916C0690916D06892B31F48D
:1017900080E396E090936D0680936C06E0912E06B0
:1017A000F0912F06309721F080E396E095838483B3
:1017B00080E396E090932F0680932E0610924006C9
:1017C00010923F068DE391E09093310680933006AE
:1017D00081E080934106E0913006F091310604806B
:1017E000F581E02D80E396E009958EE791E09093F6
:1017F00033068093320680E991E090933E06809311
:101800003D06E0913006F09131060284F385E02D2B
:1018100080E396E00995009729F19C0140E050E0B3
:1018200060E472E48FE090E00E946D0D722F632FF0
:1018300000915A0710915B0720915C0730915D077A
:10184000872F962FDA0180179107A207B30710F4AC
:10185000D901C80180935A0790935B07A0935C0756
:10186000B0935D078FEF8093360680EB8093370649
:1018700080EF8093380680E68093570794E1892EA5
:10188000912CA12CB12C3324339428EEC22E23E0CA
:10189000D22EE12CF12CCAE0D0E006E010E0E0917D
:1018A0006506F0E0EE0FFF1FE55BFE4F0190F08153
:1018B000E02D0995809157070E9463060E942D092B
:1018C0002B013C0161E070E080E090E00E94F308B1
:1018D000809157070E9463060E942D09DC01CB010D
:1018E00084199509A609B7090897A105B10550F310
:1018F00080915D06811114C00E942D0960935506E8
:101900007093560680935706909358068092590616
:1019100090925A06A0925B06B0925C0630925D06E9
:101920000E942D094090550650905606609057062B
:1019300070905806DC01CB0184199509A609B709F6
:101940004090590650905A0660905B0670905C0675
:1019500084159505A605B70578F00E942D096093BA
:1019600055067093560680935706909358068091BB
:101970007D018F5F80937D0180914D06811110C0A4
:101980000E942D09A70196010E94090D30934A0675
:1019900020934906D0934C06C0934B0630924D06D7
:1019A0000E942D09A70196010E94090D8091490608
:1019B00090914A06281B390B80914B0690914C065A
:1019C0002817390798F00E942D09A70196010E9457
:1019D000090D30934A06209349068091650690E0F0
:1019E0000196B8010E94450D809365060E94A108EA
:1019F00056CFDB018F939F930E942B0DBF91AF9128
:101A0000A29F800D911DA39F900DB29F900D112458
:101A10000895A1E21A2EAA1BBB1BFD010DC0AA1F2F
:101A2000BB1FEE1FFF1FA217B307E407F50720F047
:101A3000A21BB30BE40BF50B661F771F881F991FC2
:101A40001A9469F760957095809590959B01AC010B
:101A5000BD01CF0108950E94360DA59F900DB49F42
:101A6000900DA49F800D911D11240895A29FB00197
:101A7000B39FC001A39F700D811D1124911DB29FC2
:101A8000700D811D1124911D0895AA1BBB1B51E1EE
:101A900007C0AA1FBB1FA617B70710F0A61BB70BDE
:101AA000881F991F5A95A9F780959095BC01CD0183
:101AB000089597FB072E16F4009407D077FD09D000
:101AC0000E94450D07FC05D03EF4909581959F4FEF
:101AD0000895709561957F4F0895052E97FB1EF42C
:101AE00000940E94840D57FD07D00E94090D07FC49
:101AF00003D04EF40C94840D50954095309521956B
:101B00003F4F4F4F5F4F0895909580957095619529
:101B10007F4F8F4F9F4F08950E94360DB7FF089556
:101B2000821B930B0895EE0FFF1F0590F491E02D9B
:101B3000099481E090E0F8940C949E0DF894FFCF06
:101B4000390500003100F9183000FB302C001C472B
:101B50002600825A1F006D6A170041760E00897DAB
:101B600004003131295A1B750A00000000AB08AB94
:101B700008AB088B0087008400000000009B03571F
:101B80000382008B0087007F000401DE0305041D33
:101B900005E70578054D04000000007F072A06646C
:101BA00008C607950873088708564D4450565F319C
:0C1BB0007C315F564D4450560D0A000079
:00000001FF
