:100000000C9404010C942C010C942C010C942C01E4
:100010000C942C010C942C010C942C010C942C01AC
:100020000C942C010C942C010C942C010C942C019C
:100030000C942C010C942C010C942C010C942C018C
:100040000C9427030C942C010C9464020C943E0233
:100050000C942C010C942C010C942C010C942C016C
:100060000C942C010C942C010000000800020100EB
:100070000003040700000000000000002A2A2A20D4
:1000800050524553532027542720746F20626567D0
:10009000696E207472616E736D697474696E672025
:1000A000746F20746865206F74686572206E6F6469
:1000B0006500524632342F6578616D706C65732F20
:1000C00047657474696E6753746172746564002A5D
:1000D0002A2A204348414E47494E4720544F205238
:1000E00045434549564520524F4C45202D2D205023
:1000F000524553532027542720544F2053574954D7
:100100004348204241434B002A2A2A204348414E7B
:1001100047494E4720544F205452414E534D495465
:1001200020524F4C45202D2D20505245535320270F
:10013000522720544F2053574954434820424143AB
:100140004B0053656E7420726573706F6E7365201B
:1001500000206D6963726F7365636F6E6473002C4A
:1001600020526F756E642D747269702064656C61C5
:100170007920002C20476F7420726573706F6E7346
:1001800065200053656E7420004661696C65642CBF
:1001900020726573706F6E73652074696D6564207D
:1001A0006F75742E006661696C6564004E6F772010
:1001B00073656E64696E670000000000250028000A
:1001C0002B0000000000240027002A00040404047F
:1001D00004040404020202020202030303030303F1
:1001E00001020408102040800102040810200102CE
:1001F000040810201112131415160A0B0C0D0E0F03
:100200000001020304050C0A11241FBECFEFD8E041
:10021000DEBFCDBF22E0A4E4B1E001C01D92A43551
:10022000B207E1F711E0A0E0B1E0E6E3F5E102C0DA
:1002300005900D92A434B107D9F711E0C4E0D1E0E4
:1002400004C02197FE010E94860AC330D107C9F776
:100250000E9479060C94990A0C940000089580E09D
:1002600090E00895FC01538D448D252F30E0842FBC
:1002700090E0821B930B541710F0CF9608950197CE
:100280000895FC01918D828D981761F0828DDF01B8
:10029000A80FB11D5D968C91928D9F5F9F73928F79
:1002A00090E008958FEF9FEF0895FC01918D828D6E
:1002B000981731F0828DE80FF11D858D90E008953B
:1002C0008FEF9FEF0895FC01918D228D892F90E093
:1002D000805C9F4F821B91098F739927089587E552
:1002E00091E00E94630121E0892B09F420E0822F34
:1002F0000895FC01848DDF01A80FB11DA35ABF4FE3
:100300002C91848D90E001968F739927848FA68914
:10031000B7892C93A089B1898C9180648C93938D3B
:10032000848D981306C00288F389E02D80818F7D2B
:1003300080830895EF92FF920F931F93CF93DF93E3
:10034000EC0181E0888F9B8D8C8D981305C0E88926
:10035000F989808185FD24C0F62E0B8D10E00F5F9A
:100360001F4F0F731127E02E8C8DE8120CC00FB6B3
:1003700007FCFACFE889F989808185FFF5CFCE01A6
:100380000E947901F1CF8B8DFE01E80FF11DE35A38
:10039000FF4FF0820B8FEA89FB898081806207C062
:1003A000EE89FF896083E889F98980818064808390
:1003B00081E090E0DF91CF911F910F91FF90EF903E
:1003C0000895CF93DF93EC01888D8823C9F0EA89E3
:1003D000FB89808185FD05C0A889B9898C9186FD3E
:1003E0000FC00FB607FCF5CF808185FFF2CFA8893B
:1003F000B9898C9185FFEDCFCE010E947901E7CFBD
:10040000DF91CF91089580E090E0892B29F00E9440
:100410006F0181110C94000008953FB7F89480910A
:10042000490190914A01A0914B01B0914C0126B530
:10043000A89B05C02F3F19F00196A11DB11D3FBF1C
:10044000BA2FA92F982F8827820F911DA11DB11DAA
:10045000BC01CD0142E0660F771F881F991F4A95A6
:10046000D1F708952FB7F894609145017091460136
:1004700080914701909148012FBF08951F920F92DC
:100480000FB60F9211242F933F934F935F936F9367
:100490007F938F939F93AF93BF93EF93FF9387E5E2
:1004A00091E00E947901FF91EF91BF91AF919F91EF
:1004B0008F917F916F915F914F913F912F910F900D
:1004C0000FBE0F901F9018951F920F920FB60F92AC
:1004D00011242F938F939F93EF93FF93E0916701E4
:1004E000F09168018081E0916D01F0916E0182FDD3
:1004F00012C09081809170018F5F8F732091710184
:10050000821751F0E0917001F0E0E95AFE4F958FAB
:100510008093700101C08081FF91EF919F918F9135
:100520002F910F900FBE0F901F90189590E0FC0137
:10053000E859FF4F3491FC01E052FE4F2491FC0139
:10054000E453FE4FE491EE2309F43BC0332339F129
:10055000333091F038F43130A9F0323001F584B500
:100560008F7D12C0373091F03830A1F03430B9F4BB
:10057000809180008F7D03C0809180008F77809371
:1005800080000DC084B58F7784BD09C08091B00014
:100590008F7703C08091B0008F7D8093B000F0E032
:1005A000EE0FFF1FE854FE4FA591B4918FB7F8945A
:1005B000EC91611103C020952E2301C02E2B2C93AA
:1005C0008FBF08958230910538F0880F991F880FEA
:1005D000991F05970197F1F708958F929F92AF9217
:1005E000BF92CF92DF92EF92FF926B017C010E944B
:1005F0000D024B015C01C114D104E104F104F1F0DE
:100600000E940D02DC01CB0188199909AA09BB09D6
:10061000883E9340A105B10570F321E0C21AD108CC
:10062000E108F10888EE880E83E0981EA11CB11C39
:10063000C114D104E104F10419F7DDCFFF90EF906C
:10064000DF90CF90BF90AF909F908F9008951F92B2
:100650000F920FB60F9211242F933F938F939F9376
:10066000AF93BF938091450190914601A0914701BE
:10067000B09148013091440123E0230F2D3720F43D
:100680000196A11DB11D05C026E8230F0296A11DEC
:10069000B11D209344018093450190934601A0939E
:1006A0004701B09348018091490190914A01A0917E
:1006B0004B01B0914C010196A11DB11D80934901E0
:1006C00090934A01A0934B01B0934C01BF91AF911D
:1006D0009F918F913F912F910F900FBE0F901F9080
:1006E00018958EBD00000DB407FEFDCF8EB50895A0
:1006F000CF92DF92EF92FF920F931F93CF93DF93EE
:100700006C017A018B01C0E0D0E0CE15DF0589F0E5
:10071000D8016D918D01D601ED91FC910190F08190
:10072000E02DC6010995892B11F47E0102C02196A6
:10073000ECCFC701DF91CF911F910F91FF90EF9008
:10074000DF90CF9008950E948C0AE7E5F1E0A08940
:10075000B18982E08C93A485B5851C92A685B78566
:1007600080E18C93108EA489B58986E08C93A28950
:10077000B3898C9180618C93A289B3898C918860B4
:100780008C93A289B3898C9180688C930288F389B9
:10079000E02D80818F7D80830895CF93DF939CB57A
:1007A0009F7D9CBD9CB5937F9CBD9CB59C7F9CBD53
:1007B0009DB591609DBDCCE3D2E0682F8A810E94F7
:1007C00096028C899D89DF91CF910C94E20281E0A1
:1007D0000C94CD0380E00C94CD03EF92FF920F9325
:1007E0001F93CF93DF9300D01F92CDB7DEB7162FA4
:1007F0004A837B8389830E94EA0389818F718062A7
:100800000E947103082FE12E7B81F72E4A81140F7D
:100810001E1531F0F70181917F010E947103F8CF1D
:100820000E94E703802F0F900F900F90DF91CF91E0
:100830001F910F91FF90EF900895CF93DF931F9238
:10084000CDB7DEB70E94EA0381EE0E94710389836F
:100850000E94E70389810F90DF91CF910895CF9394
:10086000DF931F92CDB7DEB789830E94EA038981A7
:100870008F710E9471038FEF0E94710389830E9420
:10088000E70389810F90DF91CF9108951F93CF9354
:10089000DF9300D0CDB7DEB76A8389830E94EA0375
:1008A00089818F7180620E947103182F6A81862F5F
:1008B0000E9471030E94E703812F0F900F90DF9138
:1008C000CF911F91089520913C0230913D024091BB
:1008D0003E0250913F022417350721F0682F822FE6
:1008E0000C949602089580E00E942F0481FD0BC0B5
:1008F000682F626080E00E94460465E070E080E05E
:1009000090E00C94ED0208950E94730480E00E9430
:100910002F04682F616080E00E94460460E787E052
:100920000E94460481E00E9463048091450288236E
:1009300041F040914A0265E472E08AE00E94ED03D2
:1009400012C082E00E942F04E0E0F2E0E49121E096
:1009500030E001C0220FEA95EAF72095622F682364
:1009600082E00E9446048DE10E942F0481FD0C94D8
:100970001D040895CF93DF93EBEFF1E0E491CCE316
:10098000D2E04E85BC018E2F0E94ED03E5EFF1E031
:1009900084916F810E94460482E00E942F04E1E06E
:1009A000F2E0E49161E070E001C0660FEA95EAF7D9
:1009B000682B82E0DF91CF910C9446040F931F9334
:1009C000CF93DF938C01CCE3D2E04E85BC018AE06B
:1009D0000E94ED034E85B80180E10E94ED036F8116
:1009E00081E1DF91CF911F910F910C94460490E02B
:1009F000FC01E052FE4F2491FC01E453FE4F849130
:100A0000882399F090E0880F991FFC01EE53FE4F68
:100A1000A591B491FC01E854FE4F859194918FB754
:100A2000F894EC91E22BEC938FBF08950F931F93F2
:100A3000CF93DF938C01C0E0D0E0F801EC0FFD1FF5
:100A40006491662371F0E0915701F0915801019093
:100A5000F081E02D87E591E00995892B11F0219631
:100A6000ECCFCE01DF91CF911F910F910895DF92CE
:100A7000EF92FF920F931F93CF93DF931F92CDB707
:100A8000DEB7F82E20914302D22E253010F084E0FC
:100A9000D82E80914402811103C0E22EED1801C0CE
:100AA000E12C99830E94EA0380EA0E9471030F2DD2
:100AB0009981192FDA94FFEFDF1631F0F801819157
:100AC0008F010E947103F6CFEE2029F080E00E9492
:100AD0007103EA94F9CF0E94E70381E00E94630466
:100AE0000E94EA038FEF0E94710389830E94E7034B
:100AF00089818073A9F380E00E94630460E787E046
:100B00000E94460484FF04C00E941D0480E001C0CE
:100B100081E00F90DF91CF911F910F91FF90EF90A7
:100B2000DF90089580E00E94630480914C029091D0
:100B30004D020E94E2028DE10E942F0481FF08C055
:100B400080914C0290914D020E94E2020E941D048D
:100B500080E00E942F04682F6E7F80E00E94460490
:100B600082E00E942F04E0E0F2E0E49161E070E0B6
:100B700001C0660FEA95EAF7682B82E00C94460400
:100B800087E10E942F04809581700895CF92DF92B3
:100B9000EF92FF920F931F93CF93DF931F92CDB7E6
:100BA000DEB7E82E20914302243010F4D22E02C08A
:100BB00084E0D82E80914402811103C0C22ECD184A
:100BC00001C0C12C99830E94EA0381E60E9471034F
:100BD000F82E0E2D9981192FDA94FFEFDF1639F0D8
:100BE0008FEF0E947103F80181938F01F5CFCC2024
:100BF00029F08FEF0E947103CA94F9CF0E94E70396
:100C00008F2D0F90DF91CF911F910F91FF90EF905B
:100C1000DF90CF9008956115710579F0FB01019087
:100C20000020E9F73197AF01461B570BDC01ED912E
:100C3000FC910280F381E02D099480E090E008951A
:100C4000CF93DF930E941605EC016DE271E087E51A
:100C500091E00E940B068C0F9D1FDF91CF910895AC
:100C60004F925F926F927F92EF92FF920F931F933A
:100C7000CF93DF93CDB7DEB7A1970FB6F894DEBF61
:100C80000FBECDBF7C01FA01CB0119A2223008F4BE
:100C90002AE08E010F5D1F4F422E512C612C712CCA
:100CA000BF01A30192010E94640AF901CA01015027
:100CB00011096A3014F4605D01C0695CD8016C935D
:100CC000232B242B252B61F7B801C7010E940B06AB
:100CD000A1960FB6F894DEBF0FBECDBFDF91CF91C6
:100CE0001F910F91FF90EF907F906F905F904F90CA
:100CF0000895CF93DF93CDB7DEB728970FB6F8945A
:100D0000DEBF0FBECDBF789484B5826084BD84B54C
:100D1000816084BD85B5826085BD85B5816085BDF6
:100D200080916E00816080936E00109281008091AE
:100D30008100826080938100809181008160809336
:100D40008100809180008160809380008091B1005B
:100D500084608093B1008091B00081608093B00086
:100D600080917A00846080937A0080917A0082601A
:100D700080937A0080917A00816080937A008091DC
:100D80007A00806880937A001092C1001092380235
:100D90001092390210923A0210923B021092F60120
:100DA0001092F7011092F8011092F9010E9432029C
:100DB0006B017C014B015C0128EB820E2BE0921E43
:100DC000A11CB11C0E9432026C157D058E059F0589
:100DD00028F086169706A806B906A0F787E591E0E1
:100DE00090933702809336020E94A5030E9432023C
:100DF0006093F6017093F7018093F8019093F901E5
:100E00006EE171E080913602909137020E940B06EC
:100E10000E9432026B017C014B015C013AE0830EBF
:100E2000911CA11CB11C0E9432026C157D058E051F
:100E30009F0528F086169706A806B906A0F781E058
:100E400080930A020E94A50382EB90E00E94200694
:100E50008CE790E00E94200680913C0290913D0238
:100E600020913E0230913F028217930711F00E94B9
:100E7000F70480913E0290913F0220913C02309114
:100E80003D022817390711F00E94F7041FB7F894A4
:100E900080914D01811124C0E6EDF1E08491EAEEEC
:100EA000F1E09491E82FF0E0EE0FFF1FEE53FE4FBC
:100EB000A591B491EC91E92321F461E08AE00E94CC
:100EC00096028AE00E94F7048CB580618CBD8CB5D7
:100ED00080648CBD8DE00E94F7048BE00E94F704D3
:100EE00080914D018F5F80934D011FBF80E00E9474
:100EF000630481E00E94CD0365E070E080E090E053
:100F00000E94ED026CE080E00E9446046FE584E000
:100F10000E94460486E00E942F04877D182F1062ED
:100F20008BE990E0A0E0B0E080934C0290934D02FA
:100F3000A0934E02B0934F02612F86E00E944604B8
:100F400086E00E942F04811709F45BC286E00E94AC
:100F50002F0486E00E942F0445E550E060E070E039
:100F600040934C0250934D0260934E0270934F0297
:100F7000682F677D86E00E94460486E00E942F0469
:100F80000E94EA0380E50E94710383E70E947103D7
:100F90000E94E70360E08DE10E94460460E08CE17E
:100FA0000E9446041092440260E787E00E944604D3
:100FB0006CE485E00E9446040E94EA0382EE0E94EF
:100FC00071030E94E7030E941D040E94730480E0E5
:100FD0000E942F04682F6E7F80E00E94460486E006
:100FE0000E942F04887F682F636086E00E94460479
:100FF00086E091E00E94DE0480E091E00E94BA0465
:101000000E94840484EF882E99249394A12CB12CFF
:1010100011E00E943202672B682B692B41F40E9479
:101020003202623071058105910508F418C10E94F1
:101030003202609353017093540180935501909351
:101040005601C0904F01D0905001E0905101F090B6
:1010500052016C157D058E059F0540F460934F018C
:10106000709350018093510190935201C0904F01B1
:10107000D0905001E0905101F09052019B01AC01E1
:101080002C193D094E095F0969017A013AEFC3162F
:10109000D104E104F10408F4E2C060934F017093BD
:1010A00050018093510190935201809202029092DC
:1010B0000302A0920402B09205021092060210925E
:1010C000070210920802109209028091FA01909191
:1010D000FB01A091FC01B091FD018093FE01909372
:1010E000FF01A0930002B09301020E9432026093BC
:1010F000FA017093FB018093FC019093FD010E9423
:1011000032026093F6017093F7018093F801909397
:10111000F9010E9432026B017C0160E371E0809171
:101120003602909137020E940B062AE041E050E01F
:1011300060E070E080913602909137020E943006A4
:1011400067E371E080913602909137020E940B06AE
:101150002AE0B701A60180913602909137020E94E1
:10116000300669E371E080913602909137020E9467
:101170000B068091FA019091FB01A091FC01B091C6
:10118000FD01B701A601481B590B6A0B7B0B2AE036
:1011900080913602909137020E94300669E371E037
:1011A00080913602909137020E940B064091FA011D
:1011B0005091FB016091FC017091FD018091FE0155
:1011C0009091FF01A0910002B0910102481B590BC0
:1011D0006A0B7B0B2AE080913602909137020E94C5
:1011E00030066BE371E080913602909137020E94E5
:1011F0000B060E943202AB01BC012AE0809136024C
:10120000909137020E943006E0903602F09037024B
:101210006DE371E0C7010E940B066DE271E0C7014A
:101220000E940B060E9432022B013C016B017C01E3
:1012300042E0C40ED11CE11CF11C0E943202641574
:1012400075058605970508F0E0C00E94320260939C
:10125000FA017093FB018093FC019093FD01809152
:101260004E01882309F473C00E9492058CEA91E034
:101270000E9420060E940D026D837E838F839887D3
:10128000CE0105960E943705811104C085EA91E0E0
:101290000E9420060E9484040E940D026B017C01C2
:1012A0000E94C005811110C00E940D02DC01CB011B
:1012B0008C199D09AE09BF0981349D40A340B10539
:1012C00078F389E891E03BC0CE0101960E94C60503
:1012D00060E787E00E9446040E940D026B017C01DA
:1012E00083E891E00E9416054D815E816F817885CB
:1012F0002AE087E591E00E94300683E791E00E94B2
:10130000160549815A816B817C812AE087E591E04D
:101310000E9430068FE591E00E9416058D819E8126
:10132000AF81B885B701A601481B590B6A0B7B0B2F
:101330002AE087E591E00E94300681E591E00E9475
:10134000200668EE73E080E090E00E94ED0280915C
:101350004E0181112CC00E94C005882341F10E94DA
:10136000C005882349F0CE0101960E94C60560E7BA
:1013700087E00E944604F3CF0E949205CE010196B9
:101380000E9437050E94840482E491E00E941605C1
:1013900049815A816B817C812AE087E591E00E9436
:1013A00030066DE271E087E591E00E940B0687E56B
:1013B00091E00E946301892B09F187E591E00E9489
:1013C00041010E94910A843559F480914E018111A6
:1013D00015C088E091E00E94200610934E010EC0D7
:1013E000823561F480914E01882341F08FEC90E0CA
:1013F0000E94200610924E010E9484040E94030263
:1014000008CE81E080934202A1CDC616D706E80639
:10141000F90608F012CF19CFE7E5F1E01382128246
:1014200088EE93E0A0E0B0E084839583A683B78341
:1014300080E191E09183808385EC90E095878487BB
:1014400084EC90E09787868780EC90E0918B808B8E
:1014500081EC90E0938B828B82EC90E0958B848B77
:1014600086EC90E0978B868B118E128E138E148EE5
:10147000E4EFF1E016821782108611861286138639
:101480001486158616861786108A118A128A138A80
:10149000148A158AECE3F2E087E090E09183808380
:1014A00088E090E093838283168280E287831086AF
:1014B00085E0868785E090E0A0E0B0E0848B958BA6
:1014C000A68BB78B11860895A1E21A2EAA1BBB1B0F
:1014D000FD010DC0AA1FBB1FEE1FFF1FA217B30700
:1014E000E407F50720F0A21BB30BE40BF50B661F16
:1014F000771F881F991F1A9469F7609570958095DA
:1015000090959B01AC01BD01CF010895EE0FFF1F27
:101510000590F491E02D099481E090E0F8940C940A
:10152000990A9111089581568A5108F4805285587C
:061530000895F894FFCFBE
:10153600314E6F646500324E6F6465000000000036
:101546009A0178033201E101630141015501564DCB
:101556004450565F317C315F564D4450560D0A005B
:10156600564D4450455F003A323A007C005F564D76
:041576004450450098
:107800000C94343C0C94513C0C94513C0C94513CE1
:107810000C94513C0C94513C0C94513C0C94513CB4
:107820000C94513C0C94513C0C94513C0C94513CA4
:107830000C94513C0C94513C0C94513C0C94513C94
:107840000C94513C0C94513C0C94513C0C94513C84
:107850000C94513C0C94513C0C94513C0C94513C74
:107860000C94513C0C94513C11241FBECFEFD8E036
:10787000DEBFCDBF11E0A0E0B1E0ECE9FFE702C060
:1078800005900D92A230B107D9F712E0A2E0B1E065
:1078900001C01D92AD30B107E1F70E942D3D0C945F
:1078A000CC3F0C94003C982F959595959595959582
:1078B000905D8F708A307CF0282F295A8091C0000B
:1078C00085FFFCCF9093C6008091C00085FFFCCF60
:1078D0002093C6000895282F205DF0CF982F809127
:1078E000C00085FFFCCF9093C6000895EF92FF92F1
:1078F0000F931F93EE24FF2487018091C00087FD22
:1079000017C00894E11CF11C011D111D81E4E8164B
:1079100082E4F8068FE0080780E0180770F3E09132
:107920000401F091050109958091C00087FFE9CF1E
:107930008091C6001F910F91FF90EF9008950E94D3
:10794000763C982F8091C00085FFFCCF9093C600B5
:1079500091362CF490330CF09053892F089597555D
:10796000892F08951F930E949F3C182F0E949F3CCF
:107970001295107F810F1F9108951F93182F882350
:1079800021F00E94763C1150E1F71F9108951F935A
:10799000182F0E94763C803249F0809103018F5F5E
:1079A000809303018530C1F01F9108958091C0003C
:1079B00085FFFCCF84E18093C6008091C00085FFE5
:1079C000FCCF1093C6008091C00085FFFCCF80E102
:1079D0008093C6001F910895E0910401F091050184
:1079E00009951F9108950E94763C803241F0809164
:1079F00003018F5F80930301853081F008958091AA
:107A0000C00085FFFCCF84E18093C6008091C00058
:107A100085FFFCCF80E18093C6000895E0910401CA
:107A2000F09105010995089540E951E08823A1F0FE
:107A30002D9A28EE33E0FA013197F1F721503040CA
:107A4000D1F72D9828EE33E0FA013197F1F7215064
:107A50003040D1F7815061F708953F924F925F9285
:107A60006F927F928F929F92AF92BF92CF92DF924E
:107A7000EF92FF920F931F93CF93DF93000080E16B
:107A80008093C4001092C50088E18093C10086E015
:107A90008093C2005098589A259A81E00E94143D24
:107AA00024E1F22E9EE1E92E85E9D82E0FE0C02ECA
:107AB00010E1B12EAA24A394B1E49B2EA6E58A2E50
:107AC000F2E57F2EE0E26E2E79E4572E63E5462E36
:107AD00050E5352E0E94763C8033B1F18133B9F107
:107AE000803409F46FC0813409F476C0823409F41B
:107AF00085C0853409F488C0803531F1823521F1A3
:107B0000813511F1853509F485C0863509F48DC0BC
:107B1000843609F496C0843709F403C1853709F423
:107B200072C1863709F466C0809103018F5F80932C
:107B30000301853079F6E0910401F0910501099582
:107B40000E94763C803351F60E94F33CC3CF0E94E2
:107B5000763C803249F78091C00085FFFCCFF092DF
:107B6000C6008091C00085FFFCCF9092C600809136
:107B7000C00085FFFCCF8092C6008091C00085FFC9
:107B8000FCCF7092C6008091C00085FFFCCF609250
:107B9000C6008091C00085FFFCCF5092C600809146
:107BA000C00085FFFCCF4092C6008091C00085FFD9
:107BB000FCCF3092C6008091C00085FFFCCFB09210
:107BC000C60088CF0E94763C863808F4BDCF0E945C
:107BD000763C0E94F33C7ECF0E94763C803809F4CC
:107BE0009CC0813809F40BC1823809F43CC1883942
:107BF00009F48FC080E00E94C73C6CCF84E10E94F2
:107C0000BD3C0E94F33C66CF85E00E94BD3C0E94D3
:107C1000F33C60CF0E94763C809306010E94763C44
:107C2000809307010E94F33C55CF0E94763C80333D
:107C300009F41DC183E00E94BD3C80E00E94C73C66
:107C400049CF0E94763C809309020E94763C809343
:107C5000080280910C028E7F80930C020E94763C79
:107C6000853409F415C18091080290910902892B8D
:107C700089F000E010E00E94763CF801E85FFE4FDA
:107C800080830F5F1F4F80910802909109020817AF
:107C9000190788F30E94763C803209F045CF809125
:107CA0000C0280FF01C16091060170910701660F0F
:107CB000771F7093070160930601A0910802B091AD
:107CC00009021097C9F0E8E0F1E09B01AD014E0F09
:107CD0005F1FF999FECF32BD21BD819180BDFA9A17
:107CE000F99A2F5F3F4FE417F50799F76A0F7B1F4B
:107CF00070930701609306018091C00085FFFCCF5F
:107D0000F092C6008091C00085FFFCCFB092C60003
:107D1000E1CE83E00E94C73CDDCE82E00E94C73CFA
:107D2000D9CE0E94763C809309020E94763C8093D3
:107D300008028091060190910701880F991F909386
:107D40000701809306010E94763C853409F4A6C0A1
:107D500080910C028E7F80930C020E94763C8032D0
:107D600009F0B8CE8091C00085FFFCCFF092C6002C
:107D7000609108027091090261157105B9F140E046
:107D800050E080910C02A82FA170B82FB27011C0E2
:107D9000BB2309F45CC0E0910601F0910701319624
:107DA000F0930701E09306014F5F5F4F46175707B7
:107DB000E8F4AA2369F3F999FECF209106013091E6
:107DC000070132BD21BDF89A90B58091C00085FFB2
:107DD000FCCF9093C6002F5F3F4F30930701209355
:107DE00006014F5F5F4F4617570718F38091C00099
:107DF00085FDE5CE8091C00085FFF8CFE0CE81E023
:107E00000E94C73C67CE0E94763C803209F08CCE3F
:107E10008091C00085FFFCCFF092C6008091C00029
:107E200085FFFCCFE092C6008091C00085FFFCCFAB
:107E3000D092C6008091C00085FFFCCFC092C600E2
:107E40008091C00085FFFCCFB092C60043CEE09188
:107E50000601F091070194918091C00085FFFCCF4D
:107E60009093C6009CCF80E10E94C73C33CE0E9415
:107E7000763C0E94763C182F0E94763C112309F430
:107E800083C0113009F484C08FE00E94C73C22CE29
:107E900080910C02816080930C02E5CE80910C02EF
:107EA000816080930C0259CF809107018823880F4D
:107EB000880B8A2180930B02809106019091070123
:107EC000880F991F90930701809306018091080203
:107ED00080FF09C080910802909109020196909359
:107EE000090280930802F894F999FECF1127E091D6
:107EF0000601F0910701C8E0D1E08091080290915D
:107F00000902103091F40091570001700130D9F34B
:107F100003E000935700E89500915700017001308D
:107F2000D9F301E100935700E89509901990009169
:107F3000570001700130D9F301E000935700E89534
:107F40001395103498F011270091570001700130FB
:107F5000D9F305E000935700E895009157000170B0
:107F60000130D9F301E100935700E895329602976A
:107F700009F0C7CF103011F00296E5CF112480919F
:107F8000C00085FFB9CEBCCE8EE10E94C73CA2CD19
:0C7F900085E90E94C73C9ECDF894FFCF0D
:027F9C00800063
:040000030000780081
:00000001FF