:100000000C94C5000C94ED000C94ED000C94ED00E4
:100010000C94ED000C94ED000C94ED000C94ED00AC
:100020000C94ED000C94ED000C94ED000C94ED009C
:100030000C94ED000C94ED000C94ED000C94ED008C
:100040000C947D050C94ED000C944B050C94250547
:100050000C94ED000C94ED000C94ED000C94ED006C
:100060000C94ED000C94ED00111213141516000001
:100070000008000201000003040700000000000067
:1000800000000A0B0C0D0E0F0001020304052C20CA
:1000900032203A200031203A20004C697374656E9A
:1000A000696E67206F6E2074686520666F6C6C697E
:1000B0006E6720706970657320616E64206164648E
:1000C00072657373657373203A0052656365697670
:1000D000696E67206E6F64650052462054657374C4
:1000E00062656E6368004E6F2064617461206176A2
:1000F00061696C61626C65000A0056616C75653AF5
:1001000020005361743A20004875653A2000546914
:100110006D653A20004D53475F545950453A2000D1
:1001200053656E6465722049643A005061796C6F62
:1001300061643A2000526563656976656420646194
:10014000746120696E2070697065200000000000F5
:10015000250028002B0000000000240027002A00B2
:10016000040404040404040402020202020203035D
:100170000303030301020408102040800102040865
:100180001020010204081020C70511241FBECFEF64
:10019000D8E0DEBFCDBF22E0AAE2B1E001C01D92EF
:1001A000AD32B207E1F711E0A0E0B1E0ECE1F5E13A
:1001B00002C005900D92AA32B107D9F710E0C5EC44
:1001C000D0E004C02197FE010E944B09C43CD10736
:1001D000C9F70E9415060C948C0A0C940000E7E302
:1001E000F1E0A089B18982E08C93A485B5851C9249
:1001F000A685B78580E18C93108EA489B58986E0A9
:100200008C93A289B3898C9180618C93A289B389E4
:100210008C9188608C93A289B3898C9180688C932F
:100220000288F389E02D80818F7D808308950F936C
:100230001F93CF93DF938C01C0E0D0E0F801EC0F67
:10024000FD1F6491662371F0E0913701F091380150
:100250000190F081E02D87E391E00995892B11F061
:100260002196ECCFCE01DF91CF911F910F91089590
:1002700090E0FC01EC58FE4F2491FC01E05AFE4F47
:100280008491882399F090E0880F991FFC01EA5A25
:10029000FE4FA591B491FC01E45BFE4F85919491D2
:1002A0008FB7F894EC91E22BEC938FBF0895CF9227
:1002B000DF92EF92FF920F931F932FB7F894C090A5
:1002C0003301D0903401E0903501F09036012FBF1A
:1002D000DC01CB018C0D9D1DAE1DBF1D4FB7F894E9
:1002E0000091330110913401209135013091360194
:1002F0004FBF0C151D052E053F0528F080179107EF
:10030000A207B30758F71F910F91FF90EF90DF906E
:10031000CF900895CF92DF92EF92FF920F931F93A9
:10032000CF93DF936C017A018B01C0E0D0E0CE1552
:10033000DF0589F0D8016D918D01D601ED91FC9119
:100340000190F081E02DC6010995892B11F47E0101
:1003500002C02196ECCFC701DF91CF911F910F9181
:10036000FF90EF90DF90CF900895089580E090E0A7
:100370000895FC01538D448D252F30E0842F90E0AB
:10038000821B930B541710F0CF9608950197089590
:10039000FC01918D828D981761F0828DDF01A80F8D
:1003A000B11D5D968C91928D9F5F9F73928F90E0AF
:1003B00008958FEF9FEF0895FC01918D828D98171E
:1003C00031F0828DE80FF11D858D90E008958FEF5B
:1003D0009FEF0895FC01918D228D892F90E0805C24
:1003E0009F4F821B91098F739927089587E391E0AE
:1003F0000E94EA0121E0892B09F420E0822F089570
:10040000FC01848DDF01A80FB11DA35ABF4F2C91B1
:10041000848D90E001968F739927848FA689B78980
:100420002C93A089B1898C9180648C93938D848D59
:10043000981306C00288F389E02D80818F7D808328
:100440000895EF92FF920F931F93CF93DF93EC01E8
:1004500081E0888F9B8D8C8D981305C0E889F98980
:10046000808185FD24C0F62E0B8D10E00F5F1F4F9D
:100470000F731127E02E8C8DE8120CC00FB607FC0D
:10048000FACFE889F989808185FFF5CFCE010E94F6
:100490000002F1CF8B8DFE01E80FF11DE35AFF4FF3
:1004A000F0820B8FEA89FB898081806207C0EE8928
:1004B000FF896083E889F98980818064808381E095
:1004C00090E0DF91CF911F910F91FF90EF900895F1
:1004D000CF93DF93EC01888D8823C9F0EA89FB89EB
:1004E000808185FD05C0A889B9898C9186FD0FC0E2
:1004F0000FB607FCF5CF808185FFF2CFA889B989B7
:100500008C9185FFEDCFCE010E940002E7CFDF91F5
:10051000CF91089580E090E0892B29F00E94F601A8
:1005200081110C940000089590E0FC01E259FF4F06
:100530003491FC01EC58FE4F2491FC01E05AFE4F2F
:10054000E491EE2309F43BC0332339F1333091F0C9
:1005500038F43130A9F0323001F584B58F7D12C006
:10056000373091F03830A1F03430B9F48091800008
:100570008F7D03C0809180008F77809380000DC0B5
:1005800084B58F7784BD09C08091B0008F7703C098
:100590008091B0008F7D8093B000F0E0EE0FFF1FE0
:1005A000E45BFE4FA591B4918FB7F894EC91611183
:1005B00003C020952E2301C02E2B2C938FBF0895AE
:1005C0003FB7F89480912B0190912C01A0912D01BF
:1005D000B0912E0126B5A89B05C02F3F19F00196BA
:1005E000A11DB11D3FBFBA2FA92F982F8827820FB9
:1005F000911DA11DB11DBC01CD0142E0660F771F09
:10060000881F991F4A95D1F708958F929F92AF92B4
:10061000BF92CF92DF92EF92FF926B017C010E941A
:10062000E0024B015C01C114D104E104F104F1F0DA
:100630000E94E002DC01CB0188199909AA09BB09D3
:10064000883E9340A105B10570F321E0C21AD1089C
:10065000E108F10888EE880E83E0981EA11CB11C09
:10066000C114D104E104F10419F7DDCFFF90EF903C
:10067000DF90CF90BF90AF909F908F9008958EBDE8
:1006800000000DB407FEFDCF8EB50895CF93DF9324
:10069000EC019CB59F7D9CBD9CB5937F9CBD9CB59A
:1006A0009C7F9CBD9DB591609DBD8A810E949402F6
:1006B0008C899D898230910538F0880F991F880FA9
:1006C000991F05970197F1F7DF91CF91089560E0A9
:1006D0000C9446031F93CF93DF93EC010E946703B2
:1006E00081EE0E943F03182F61E0CE010E94460375
:1006F000812FDF91CF911F910895EF92FF921F9369
:10070000CF93DF9300D0CDB7DEB77C014A836983F6
:100710000E9467036981862F8F7180620E943F0368
:10072000182F4A81842F0E943F0361E0C7010E9475
:100730004603812F0F900F90DF91CF911F91FF9073
:10074000EF900895CF92DF92EF92FF920F931F9355
:10075000CF93DF9300D01F92CDB7DEB77C01142F6B
:100760002A835B8369830E9467036981862F8F7167
:1007700080620E943F03082FC12E5B81D52E2A8103
:10078000120F1C1531F0F60181916F010E943F0399
:10079000F8CF61E0C7010E944603802F0F900F90B1
:1007A0000F90DF91CF911F910F91FF90EF90DF900D
:1007B000CF900895EF92FF921F93CF93DF931F92F4
:1007C000CDB7DEB77C0169830E9467036981862FFC
:1007D0008F710E943F038FEF0E943F03182F61E04B
:1007E000C7010E944603812F0F90DF91CF911F9187
:1007F000FF90EF9008950F931F93CF93DF938C0199
:10080000C62FD0E0FE01E859FF4F6491FC014781FB
:100810000E947D0362E0C8010E94DA03FE01E857EE
:10082000FF4FE49141E050E001C0440FEA95EAF740
:10083000482B62E0C801DF91CF911F910F910C947A
:100840007D03EF92FF920F931F93CF938C017B0157
:1008500066E00E94DA03C82FC77D82E0E816F10443
:1008600031F4C0628BE990E0A0E0B0E00DC0EA9402
:10087000EF2829F085E590E0A0E0B0E005C0C86071
:1008800081E490E0A0E0B0E0F801808B918BA28B36
:10089000B38B4C2F66E0C8010E947D0366E0C8015F
:1008A0000E94DA0391E08C1390E0892FCF911F9181
:1008B0000F91FF90EF900895CF93DF93EC0160E0EC
:1008C0000E94DA0381FD0EC0482F426060E0CE0135
:1008D0000E947D0365E070E080E090E0DF91CF91C1
:1008E0000C940503DF91CF9108950E947E0A611553
:1008F000710579F0FB0101900020E9F73197AF0114
:10090000461B570BDC01ED91FC910280F381E02D39
:10091000099480E090E00895CF93DF930E9417013F
:10092000EC0167E271E087E391E00E9477048C0FAD
:100930009D1FDF91CF9108954F925F926F927F92AA
:10094000EF92FF920F931F93CF93DF93CDB7DEB754
:10095000A1970FB6F894DEBF0FBECDBF7C01FA01A0
:10096000CB0119A2223008F42AE08E010F5D1F4F3F
:10097000422E512C612C712CBF01A30192010E94C7
:100980002909F901CA01015011096A3014F4605DA6
:1009900001C0695CD8016C93232B242B252B61F7B4
:1009A000B801C7010E947704A1960FB6F894DEBF84
:1009B0000FBECDBFDF91CF911F910F91FF90EF90B0
:1009C0007F906F905F904F900895CF92DF92EF925B
:1009D000FF92CF93DF936B017C01E0913701F0919F
:1009E00038010190F081E02D6DE287E391E00995F7
:1009F000EC0144275527BA014C195D096E097F099E
:100A00002AE087E391E00E949C048C0F9D1FDF91F8
:100A1000CF91FF90EF90DF90CF900895CF93DF9329
:100A2000482F50E060E070E02AE087E391E00E9408
:100A30009C04EC0167E271E087E391E00E94770497
:100A40008C0F9D1FDF91CF9108951F920F920FB6CB
:100A50000F9211242F933F934F935F936F937F9344
:100A60008F939F93AF93BF93EF93FF9387E391E0AF
:100A70000E940002FF91EF91BF91AF919F918F91E2
:100A80007F916F915F914F913F912F910F900FBE8A
:100A90000F901F9018951F920F920FB60F9211246E
:100AA0002F938F939F93EF93FF93E0914701F091E2
:100AB00048018081E0914D01F0914E0182FD12C00C
:100AC0009081809150018F5F8F7320915101821727
:100AD00051F0E0915001F0E0E95CFE4F958F80937A
:100AE000500101C08081FF91EF919F918F912F91D3
:100AF0000F900FBE0F901F9018951F920F920FB678
:100B00000F9211242F933F938F939F93AF93BF9393
:100B10008091330190913401A0913501B09136015B
:100B200030912A0123E0230F2D3720F40196A11DD7
:100B3000B11D05C026E8230F0296A11DB11D20930B
:100B40002A018093330190933401A0933501B0932F
:100B5000360180912B0190912C01A0912D01B09133
:100B60002E010196A11DB11D80932B0190932C01A4
:100B7000A0932D01B0932E01BF91AF919F918F91C2
:100B80003F912F910F900FBE0F901F901895E7E3A4
:100B9000F1E01382128288EE93E0A0E0B0E084835B
:100BA0009583A683B7838AE091E09183808385EC67
:100BB00090E09587848784EC90E09787868780EC27
:100BC00090E0918B808B81EC90E0938B828B82EC18
:100BD00090E0958B848B86EC90E0978B868B118EC2
:100BE000128E138E148EE4EDF1E0168217821086B9
:100BF0001186128613861486158616861786108A25
:100C0000118A128A138A148A158AECE1F2E08FEFB6
:100C1000808312821182148613868FEF9FEFDC018E
:100C200087839087A187B2870895CF93DF93CDB74D
:100C3000DEB76E970FB6F894DEBF0FBECDBF7894C7
:100C400084B5826084BD84B5816084BD85B58260D1
:100C500085BD85B5816085BD80916E008160809382
:100C60006E001092810080918100826080938100EB
:100C700080918100816080938100809180008160FB
:100C8000809380008091B10084608093B100809156
:100C9000B00081608093B00080917A00846080937E
:100CA0007A0080917A00826080937A0080917A0045
:100CB000816080937A0080917A00806880937A00C6
:100CC0001092C100109218021092190210921A028A
:100CD00010921B021092D6011092D7011092D801E7
:100CE0001092D90168EB7BE080E090E00E94570110
:100CF00087E391E090931702809316020E94EF0021
:100D00002FB7F8948091330190913401A09135016F
:100D1000B09136012FBF8093D6019093D701A09355
:100D2000D801B093D90168E171E0809116029091E9
:100D300017020E9477046AE070E080E090E00E9471
:100D4000570111E01093EA0168EB7BE080E090E04E
:100D50000E9405030E94EF0089ED90E00E948C0440
:100D60008DE190E00E9451097C01FC01108F82E02E
:100D7000818F88E190E00E9451098C0187E090E02A
:100D8000F8019183808388E090E0938382831682C8
:100D900080E28783108685E0868785E090E0A0E08A
:100DA000B0E0848B958BA68BB78B1186F701148FDF
:100DB000038F87E00E943801F801828193812081AE
:100DC00031812817390711F00E943801DFB6F894F5
:100DD00080912F01811124C0EAE6F1E08491EEE7D1
:100DE000F1E09491E82FF0E0EE0FFF1FEA5AFE4F7A
:100DF000A591B491EC91E92321F461E08AE00E948D
:100E000094028AE00E9438018CB580618CBD8CB55B
:100E100080648CBD8DE00E9438018BE00E94380117
:100E200080912F018F5F80932F01DFBEF8018081B9
:100E30009181228133818217930719F060E00E942B
:100E4000940261E0C8010E94460365E070E080E022
:100E500090E00E9405034CE060E0C8010E947D0321
:100E60004FE564E0C8010E947D0362E070E0C801C4
:100E70000E942104882319F081E0F801868366E04E
:100E8000C8010E94DA0360E070E0C8010E942104FA
:100E9000C8010E94670380E50E943F0383E70E9428
:100EA0003F0361E0C8010E94460340E06DE1C801D4
:100EB0000E947D0340E06CE1C8010E947D03F801BF
:100EC000108640E767E0C8010E947D034CE465E0BE
:100ED000C8010E947D03C8010E94670382EE0E9440
:100EE0003F0361E0C8010E944603C8010E946A03F3
:100EF000C8010E945C0460E0C8010E94DA03482F28
:100F00004E7F60E0C8010E947D03F701038D148DC0
:100F100066E0C8010E94DA03482F476066E0C80116
:100F20000E947D0362E070E0F701838D948D0E9442
:100F30002104F701C38CD48C8AEA898B01EF0A8BD8
:100F400010EF1B8B1C8B1D8B1E8A1F8A188EF601BF
:100F5000468550E0BE016F5E7F4FC60109960E9434
:100F6000830AE2E8F0E06491F6012685AE014F5E67
:100F70005F4FC6010E94A20360E0C6010E94FB030E
:100F8000F701C38CD48C81E089870A871B871C8773
:100F90001D871E861F86188AE3E8F0E06491F6013B
:100FA0002685AE01475F5F4FC6010E94A20361E044
:100FB000C6010E94FB03F701C38CD48C8FE08983A8
:100FC0000A831B831C831D831E821F821886E4E80C
:100FD000F0E0649121E0AE014F5F5F4FC6010E94D7
:100FE000A20362E0C6010E94FB03F701038D148D8A
:100FF0006DE1C8010E94DA03482F41606DE1C8012C
:101000000E947D03F701038D148D61E0C8010E94E9
:10101000DA03482F4B7F61E0C8010E947D03F7018E
:10102000038D148DC8010E945C0460E0C8010E9419
:10103000DA03482F416060E0C8010E947D0340E769
:1010400067E0C8010E947D03F801808191812281BF
:1010500033818217930719F061E00E949402F8012E
:101060008185882349F02685A801475F5F4F6AE0A4
:10107000C8010E94A20314C062E0C8010E94DA0302
:10108000E8E8F0E0E49121E030E001C0220FEA95C9
:10109000EAF72095422F482362E0C8010E947D03B1
:1010A0006DE1C8010E94DA0381FF03C0C8010E94FC
:1010B0006A038AE990E00E948C0485E990E00E942E
:1010C00017012AE041E050E060E070E087E391E042
:1010D0000E949C048EE890E00E9417012AE04FE0F5
:1010E00050E060E070E087E391E00E949C0467E2DA
:1010F00071E087E391E00E947704F0923201E09280
:1011000031018AEC90E00E948C04CC24C394A0901E
:101110003101B0903201F501E38CF48C67E1C70135
:101120000E94DA0380FD88C0C7010E9467038FEF29
:101130000E943F03082F61E0C7010E944603F501AA
:10114000E38CF48CF7011781163010F4D12E02C015
:1011500036E0D32EF7018085811102C01D1901C030
:1011600010E0C7010E94670381E60E943F03CE01A1
:1011700049965C01DA94FFEFDF1639F08FEF0E9499
:101180003F03F50181935F01F5CF112329F08FEF24
:101190000E943F031150F9CF61E0C7010E9446034E
:1011A00040E767E0C7010E947D03A98CBA8CDB8C05
:1011B000EC8CFD8C1E8D85E391E00E941701202FA1
:1011C00030E0C9019595879587700E940E058BE2E6
:1011D00091E00E948C0480E291E00E9417018A2D28
:1011E0000E940E0585E191E00E9417018B2D0E945F
:1011F0000E058EE091E00E9417018D2D0E940E05D4
:1012000088E091E00E9417018E2D0E940E0582E079
:1012100091E00E9417018F2D0E940E058AEF90E049
:101220000E941701812F0E940E0588EF90E00E9416
:101230008C04109230010AC080913001811106C0E7
:1012400086EE90E00E948C04C09230010E948A02D7
:101250005ECFA1E21A2EAA1BBB1BFD010DC0AA1F67
:10126000BB1FEE1FFF1FA217B307E407F50720F00F
:10127000A21BB30BE40BF50B661F771F881F991F8A
:101280001A9469F760957095809590959B01AC01D3
:10129000BD01CF010895EE0FFF1F0590F491E02DE1
:1012A0000994CF93DF938230910510F482E090E0AF
:1012B000E0912B02F0912C0220E030E0C0E0D0E081
:1012C000309711F14081518148175907C0F04817F4
:1012D000590761F482819381209719F09B838A8357
:1012E0002BC090932C0280932B0226C02115310530
:1012F00019F04217530718F49A01BE01DF01EF01FC
:101300000280F381E02DDCCF2115310509F1281B86
:10131000390B2430310590F412968D919C911397DE
:101320006115710521F0FB019383828304C09093C2
:101330002C0280932B02FD01329644C0FD01E20F86
:10134000F31F81939193225031092D933C933AC01E
:101350002091290230912A02232B41F4209102018D
:101360003091030130932A02209329022091000139
:10137000309101012115310541F42DB73EB740915F
:10138000040150910501241B350BE0912902F091D5
:101390002A02E217F307A0F42E1B3F0B2817390788
:1013A00078F0AC014E5F5F4F2417350748F04E0FC1
:1013B0005F1F50932A02409329028193919302C0A8
:1013C000E0E0F0E0CF01DF91CF9108950F931F93FC
:1013D000CF93DF93009709F48CC0FC0132971382FE
:1013E000128200912B0210912C020115110581F43B
:1013F00020813181820F931F2091290230912A028E
:101400002817390779F5F0932A02E093290271C071
:10141000D80140E050E0AE17BF0750F412962D916E
:101420003C911397AD012115310509F1D901F3CF95
:101430009D01DA013383228360817181860F971FBA
:101440008217930769F4EC0128813981260F371F31
:101450002E5F3F4F318320838A819B8193838283D8
:10146000452B29F4F0932C02E0932B0242C01396F3
:10147000FC93EE931297ED01499159919E01240F2F
:10148000351FE217F30771F480819181840F951F56
:10149000029611969C938E938281938113969C93CE
:1014A0008E931297E0E0F0E0D80112968D919C9116
:1014B0001397009719F0F8018C01F6CF8D919C914C
:1014C00098012E5F3F4F820F931F20912902309188
:1014D0002A022817390769F4309729F410922C0250
:1014E00010922B0202C01382128210932A020093E0
:1014F0002902DF91CF911F910F91089581E090E033
:10150000F8940C948C0AFB01DC0102C001900D924E
:0C15100041505040D8F70895F894FFCFE8
:10151C0000002D0280000000000021028A01B901A8
:10152C006802EA01C801DC01564D4450565F317C1B
:0A153C00315F564D4450560D0A0071
:107800000C94343C0C94513C0C94513C0C94513CE1
:107810000C94513C0C94513C0C94513C0C94513CB4
:107820000C94513C0C94513C0C94513C0C94513CA4
:107830000C94513C0C94513C0C94513C0C94513C94
:107840000C94513C0C94513C0C94513C0C94513C84
:107850000C94513C0C94513C0C94513C0C94513C74
:107860000C94513C0C94513C11241FBECFEFD8E036
:10787000DEBFCDBF11E0A0E0B1E0ECE9FFE702C060
:1078800005900D92A230B107D9F712E0A2E0B1E065
:1078900001C01D92AD30B107E1F70E942D3D0C945F
:1078A000CC3F0C94003C982F959595959595959582
:1078B000905D8F708A307CF0282F295A8091C0000B
:1078C00085FFFCCF9093C6008091C00085FFFCCF60
:1078D0002093C6000895282F205DF0CF982F809127
:1078E000C00085FFFCCF9093C6000895EF92FF92F1
:1078F0000F931F93EE24FF2487018091C00087FD22
:1079000017C00894E11CF11C011D111D81E4E8164B
:1079100082E4F8068FE0080780E0180770F3E09132
:107920000401F091050109958091C00087FFE9CF1E
:107930008091C6001F910F91FF90EF9008950E94D3
:10794000763C982F8091C00085FFFCCF9093C600B5
:1079500091362CF490330CF09053892F089597555D
:10796000892F08951F930E949F3C182F0E949F3CCF
:107970001295107F810F1F9108951F93182F882350
:1079800021F00E94763C1150E1F71F9108951F935A
:10799000182F0E94763C803249F0809103018F5F5E
:1079A000809303018530C1F01F9108958091C0003C
:1079B00085FFFCCF84E18093C6008091C00085FFE5
:1079C000FCCF1093C6008091C00085FFFCCF80E102
:1079D0008093C6001F910895E0910401F091050184
:1079E00009951F9108950E94763C803241F0809164
:1079F00003018F5F80930301853081F008958091AA
:107A0000C00085FFFCCF84E18093C6008091C00058
:107A100085FFFCCF80E18093C6000895E0910401CA
:107A2000F09105010995089540E951E08823A1F0FE
:107A30002D9A28EE33E0FA013197F1F721503040CA
:107A4000D1F72D9828EE33E0FA013197F1F7215064
:107A50003040D1F7815061F708953F924F925F9285
:107A60006F927F928F929F92AF92BF92CF92DF924E
:107A7000EF92FF920F931F93CF93DF93000080E16B
:107A80008093C4001092C50088E18093C10086E015
:107A90008093C2005098589A259A81E00E94143D24
:107AA00024E1F22E9EE1E92E85E9D82E0FE0C02ECA
:107AB00010E1B12EAA24A394B1E49B2EA6E58A2E50
:107AC000F2E57F2EE0E26E2E79E4572E63E5462E36
:107AD00050E5352E0E94763C8033B1F18133B9F107
:107AE000803409F46FC0813409F476C0823409F41B
:107AF00085C0853409F488C0803531F1823521F1A3
:107B0000813511F1853509F485C0863509F48DC0BC
:107B1000843609F496C0843709F403C1853709F423
:107B200072C1863709F466C0809103018F5F80932C
:107B30000301853079F6E0910401F0910501099582
:107B40000E94763C803351F60E94F33CC3CF0E94E2
:107B5000763C803249F78091C00085FFFCCFF092DF
:107B6000C6008091C00085FFFCCF9092C600809136
:107B7000C00085FFFCCF8092C6008091C00085FFC9
:107B8000FCCF7092C6008091C00085FFFCCF609250
:107B9000C6008091C00085FFFCCF5092C600809146
:107BA000C00085FFFCCF4092C6008091C00085FFD9
:107BB000FCCF3092C6008091C00085FFFCCFB09210
:107BC000C60088CF0E94763C863808F4BDCF0E945C
:107BD000763C0E94F33C7ECF0E94763C803809F4CC
:107BE0009CC0813809F40BC1823809F43CC1883942
:107BF00009F48FC080E00E94C73C6CCF84E10E94F2
:107C0000BD3C0E94F33C66CF85E00E94BD3C0E94D3
:107C1000F33C60CF0E94763C809306010E94763C44
:107C2000809307010E94F33C55CF0E94763C80333D
:107C300009F41DC183E00E94BD3C80E00E94C73C66
:107C400049CF0E94763C809309020E94763C809343
:107C5000080280910C028E7F80930C020E94763C79
:107C6000853409F415C18091080290910902892B8D
:107C700089F000E010E00E94763CF801E85FFE4FDA
:107C800080830F5F1F4F80910802909109020817AF
:107C9000190788F30E94763C803209F045CF809125
:107CA0000C0280FF01C16091060170910701660F0F
:107CB000771F7093070160930601A0910802B091AD
:107CC00009021097C9F0E8E0F1E09B01AD014E0F09
:107CD0005F1FF999FECF32BD21BD819180BDFA9A17
:107CE000F99A2F5F3F4FE417F50799F76A0F7B1F4B
:107CF00070930701609306018091C00085FFFCCF5F
:107D0000F092C6008091C00085FFFCCFB092C60003
:107D1000E1CE83E00E94C73CDDCE82E00E94C73CFA
:107D2000D9CE0E94763C809309020E94763C8093D3
:107D300008028091060190910701880F991F909386
:107D40000701809306010E94763C853409F4A6C0A1
:107D500080910C028E7F80930C020E94763C8032D0
:107D600009F0B8CE8091C00085FFFCCFF092C6002C
:107D7000609108027091090261157105B9F140E046
:107D800050E080910C02A82FA170B82FB27011C0E2
:107D9000BB2309F45CC0E0910601F0910701319624
:107DA000F0930701E09306014F5F5F4F46175707B7
:107DB000E8F4AA2369F3F999FECF209106013091E6
:107DC000070132BD21BDF89A90B58091C00085FFB2
:107DD000FCCF9093C6002F5F3F4F30930701209355
:107DE00006014F5F5F4F4617570718F38091C00099
:107DF00085FDE5CE8091C00085FFF8CFE0CE81E023
:107E00000E94C73C67CE0E94763C803209F08CCE3F
:107E10008091C00085FFFCCFF092C6008091C00029
:107E200085FFFCCFE092C6008091C00085FFFCCFAB
:107E3000D092C6008091C00085FFFCCFC092C600E2
:107E40008091C00085FFFCCFB092C60043CEE09188
:107E50000601F091070194918091C00085FFFCCF4D
:107E60009093C6009CCF80E10E94C73C33CE0E9415
:107E7000763C0E94763C182F0E94763C112309F430
:107E800083C0113009F484C08FE00E94C73C22CE29
:107E900080910C02816080930C02E5CE80910C02EF
:107EA000816080930C0259CF809107018823880F4D
:107EB000880B8A2180930B02809106019091070123
:107EC000880F991F90930701809306018091080203
:107ED00080FF09C080910802909109020196909359
:107EE000090280930802F894F999FECF1127E091D6
:107EF0000601F0910701C8E0D1E08091080290915D
:107F00000902103091F40091570001700130D9F34B
:107F100003E000935700E89500915700017001308D
:107F2000D9F301E100935700E89509901990009169
:107F3000570001700130D9F301E000935700E89534
:107F40001395103498F011270091570001700130FB
:107F5000D9F305E000935700E895009157000170B0
:107F60000130D9F301E100935700E895329602976A
:107F700009F0C7CF103011F00296E5CF112480919F
:107F8000C00085FFB9CEBCCE8EE10E94C73CA2CD19
:0C7F900085E90E94C73C9ECDF894FFCF0D
:027F9C00800063
:040000030000780081
:00000001FF